{
	"contracts/cow.sol": {
		"Cow": {
			"abi": [
				{
					"inputs": [
						{
							"internalType": "uint256",
							"name": "",
							"type": "uint256"
						}
					],
					"name": "animalToOwner",
					"outputs": [
						{
							"internalType": "address",
							"name": "",
							"type": "address"
						}
					],
					"stateMutability": "view",
					"type": "function"
				},
				{
					"inputs": [
						{
							"internalType": "uint256",
							"name": "",
							"type": "uint256"
						}
					],
					"name": "animals",
					"outputs": [
						{
							"internalType": "string",
							"name": "kind",
							"type": "string"
						},
						{
							"internalType": "uint256",
							"name": "age",
							"type": "uint256"
						},
						{
							"internalType": "uint256",
							"name": "numberOfAnimal",
							"type": "uint256"
						}
					],
					"stateMutability": "view",
					"type": "function"
				},
				{
					"inputs": [
						{
							"internalType": "string",
							"name": "_kind",
							"type": "string"
						},
						{
							"internalType": "uint256",
							"name": "_age",
							"type": "uint256"
						},
						{
							"internalType": "uint256",
							"name": "_dayMilk",
							"type": "uint256"
						},
						{
							"internalType": "string",
							"name": "_cowCollor",
							"type": "string"
						}
					],
					"name": "buyCow",
					"outputs": [],
					"stateMutability": "payable",
					"type": "function"
				},
				{
					"inputs": [],
					"name": "cowCollor",
					"outputs": [
						{
							"internalType": "string",
							"name": "",
							"type": "string"
						}
					],
					"stateMutability": "view",
					"type": "function"
				},
				{
					"inputs": [],
					"name": "dayMilk",
					"outputs": [
						{
							"internalType": "uint256",
							"name": "",
							"type": "uint256"
						}
					],
					"stateMutability": "view",
					"type": "function"
				},
				{
					"inputs": [
						{
							"internalType": "uint256",
							"name": "_animalId",
							"type": "uint256"
						}
					],
					"name": "feedCow",
					"outputs": [],
					"stateMutability": "view",
					"type": "function"
				},
				{
					"inputs": [],
					"name": "getCowColor",
					"outputs": [
						{
							"internalType": "string",
							"name": "",
							"type": "string"
						}
					],
					"stateMutability": "view",
					"type": "function"
				},
				{
					"inputs": [],
					"name": "getDayMilk",
					"outputs": [
						{
							"internalType": "uint256",
							"name": "",
							"type": "uint256"
						}
					],
					"stateMutability": "view",
					"type": "function"
				},
				{
					"inputs": [
						{
							"internalType": "address",
							"name": "",
							"type": "address"
						}
					],
					"name": "level",
					"outputs": [
						{
							"internalType": "uint256",
							"name": "",
							"type": "uint256"
						}
					],
					"stateMutability": "view",
					"type": "function"
				},
				{
					"inputs": [
						{
							"internalType": "uint256",
							"name": "_animalId",
							"type": "uint256"
						}
					],
					"name": "milkCow",
					"outputs": [],
					"stateMutability": "payable",
					"type": "function"
				},
				{
					"inputs": [],
					"name": "milkPrice",
					"outputs": [
						{
							"internalType": "uint256",
							"name": "",
							"type": "uint256"
						}
					],
					"stateMutability": "view",
					"type": "function"
				}
			],
			"devdoc": {
				"kind": "dev",
				"methods": {},
				"version": 1
			},
			"evm": {
				"assembly": "    /* \"contracts/cow.sol\":119:2243  contract Cow is Animals {... */\n  mstore(0x40, 0x80)\n  callvalue\n  dup1\n  iszero\n  tag_1\n  jumpi\n  0x00\n  dup1\n  revert\ntag_1:\n  pop\n  dataSize(sub_0)\n  dup1\n  dataOffset(sub_0)\n  0x00\n  codecopy\n  0x00\n  return\nstop\n\nsub_0: assembly {\n        /* \"contracts/cow.sol\":119:2243  contract Cow is Animals {... */\n      mstore(0x40, 0x80)\n      jumpi(tag_1, lt(calldatasize, 0x04))\n      shr(0xe0, calldataload(0x00))\n      dup1\n      0x6b7d7bff\n      gt\n      tag_13\n      jumpi\n      dup1\n      0x6b7d7bff\n      eq\n      tag_7\n      jumpi\n      dup1\n      0x998dd3ca\n      eq\n      tag_8\n      jumpi\n      dup1\n      0xa175aae8\n      eq\n      tag_9\n      jumpi\n      dup1\n      0xd41b6db6\n      eq\n      tag_10\n      jumpi\n      dup1\n      0xd81c513a\n      eq\n      tag_11\n      jumpi\n      dup1\n      0xe2f2d5f7\n      eq\n      tag_12\n      jumpi\n      jump(tag_1)\n    tag_13:\n      dup1\n      0x01c7ddef\n      eq\n      tag_2\n      jumpi\n      dup1\n      0x04920d5c\n      eq\n      tag_3\n      jumpi\n      dup1\n      0x0f541e2d\n      eq\n      tag_4\n      jumpi\n      dup1\n      0x2e3a8d27\n      eq\n      tag_5\n      jumpi\n      dup1\n      0x2f43a3e7\n      eq\n      tag_6\n      jumpi\n    tag_1:\n      0x00\n      dup1\n      revert\n        /* \"contracts/cow.sol\":796:890  function getCowColor() public view returns (string memory) {... */\n    tag_2:\n      callvalue\n      dup1\n      iszero\n      tag_14\n      jumpi\n      0x00\n      dup1\n      revert\n    tag_14:\n      pop\n      tag_15\n      tag_16\n      jump\t// in\n    tag_15:\n      mload(0x40)\n      tag_17\n      swap2\n      swap1\n      tag_18\n      jump\t// in\n    tag_17:\n      mload(0x40)\n      dup1\n      swap2\n      sub\n      swap1\n      return\n        /* \"contracts/cow.sol\":1578:2240  function milkCow(uint _animalId) public payable {... */\n    tag_3:\n      tag_19\n      0x04\n      dup1\n      calldatasize\n      sub\n      dup2\n      add\n      swap1\n      tag_20\n      swap2\n      swap1\n      tag_21\n      jump\t// in\n    tag_20:\n      tag_22\n      jump\t// in\n    tag_19:\n      stop\n        /* \"contracts/cow.sol\":219:242  string public cowCollor */\n    tag_4:\n      callvalue\n      dup1\n      iszero\n      tag_23\n      jumpi\n      0x00\n      dup1\n      revert\n    tag_23:\n      pop\n      tag_24\n      tag_25\n      jump\t// in\n    tag_24:\n      mload(0x40)\n      tag_26\n      swap2\n      swap1\n      tag_18\n      jump\t// in\n    tag_26:\n      mload(0x40)\n      dup1\n      swap2\n      sub\n      swap1\n      return\n        /* \"contracts/cow.sol\":928:1240  function buyCow(string memory _kind, uint _age, uint _dayMilk, string memory _cowCollor ) public payable {... */\n    tag_5:\n      tag_27\n      0x04\n      dup1\n      calldatasize\n      sub\n      dup2\n      add\n      swap1\n      tag_28\n      swap2\n      swap1\n      tag_29\n      jump\t// in\n    tag_28:\n      tag_30\n      jump\t// in\n    tag_27:\n      stop\n        /* \"contracts/cow.sol\":267:310  uint public constant milkPrice = 0.01 ether */\n    tag_6:\n      callvalue\n      dup1\n      iszero\n      tag_31\n      jumpi\n      0x00\n      dup1\n      revert\n    tag_31:\n      pop\n      tag_32\n      tag_33\n      jump\t// in\n    tag_32:\n      mload(0x40)\n      tag_34\n      swap2\n      swap1\n      tag_35\n      jump\t// in\n    tag_34:\n      mload(0x40)\n      dup1\n      swap2\n      sub\n      swap1\n      return\n        /* \"contracts/cow.sol\":669:751  function getDayMilk() public view returns (uint) {... */\n    tag_7:\n      callvalue\n      dup1\n      iszero\n      tag_36\n      jumpi\n      0x00\n      dup1\n      revert\n    tag_36:\n      pop\n      tag_37\n      tag_38\n      jump\t// in\n    tag_37:\n      mload(0x40)\n      tag_39\n      swap2\n      swap1\n      tag_35\n      jump\t// in\n    tag_39:\n      mload(0x40)\n      dup1\n      swap2\n      sub\n      swap1\n      return\n        /* \"contracts/animals.sol\":289:312  Animal[] public animals */\n    tag_8:\n      callvalue\n      dup1\n      iszero\n      tag_40\n      jumpi\n      0x00\n      dup1\n      revert\n    tag_40:\n      pop\n      tag_41\n      0x04\n      dup1\n      calldatasize\n      sub\n      dup2\n      add\n      swap1\n      tag_42\n      swap2\n      swap1\n      tag_21\n      jump\t// in\n    tag_42:\n      tag_43\n      jump\t// in\n    tag_41:\n      mload(0x40)\n      tag_44\n      swap4\n      swap3\n      swap2\n      swap1\n      tag_45\n      jump\t// in\n    tag_44:\n      mload(0x40)\n      dup1\n      swap2\n      sub\n      swap1\n      return\n        /* \"contracts/cow.sol\":1271:1570  function feedCow(uint _animalId) public view  {... */\n    tag_9:\n      callvalue\n      dup1\n      iszero\n      tag_46\n      jumpi\n      0x00\n      dup1\n      revert\n    tag_46:\n      pop\n      tag_47\n      0x04\n      dup1\n      calldatasize\n      sub\n      dup2\n      add\n      swap1\n      tag_48\n      swap2\n      swap1\n      tag_21\n      jump\t// in\n    tag_48:\n      tag_49\n      jump\t// in\n    tag_47:\n      stop\n        /* \"contracts/animals.sol\":187:224  mapping(address => uint) public level */\n    tag_10:\n      callvalue\n      dup1\n      iszero\n      tag_50\n      jumpi\n      0x00\n      dup1\n      revert\n    tag_50:\n      pop\n      tag_51\n      0x04\n      dup1\n      calldatasize\n      sub\n      dup2\n      add\n      swap1\n      tag_52\n      swap2\n      swap1\n      tag_53\n      jump\t// in\n    tag_52:\n      tag_54\n      jump\t// in\n    tag_51:\n      mload(0x40)\n      tag_55\n      swap2\n      swap1\n      tag_35\n      jump\t// in\n    tag_55:\n      mload(0x40)\n      dup1\n      swap2\n      sub\n      swap1\n      return\n        /* \"contracts/animals.sol\":231:276  mapping(uint => address) public animalToOwner */\n    tag_11:\n      callvalue\n      dup1\n      iszero\n      tag_56\n      jumpi\n      0x00\n      dup1\n      revert\n    tag_56:\n      pop\n      tag_57\n      0x04\n      dup1\n      calldatasize\n      sub\n      dup2\n      add\n      swap1\n      tag_58\n      swap2\n      swap1\n      tag_21\n      jump\t// in\n    tag_58:\n      tag_59\n      jump\t// in\n    tag_57:\n      mload(0x40)\n      tag_60\n      swap2\n      swap1\n      tag_61\n      jump\t// in\n    tag_60:\n      mload(0x40)\n      dup1\n      swap2\n      sub\n      swap1\n      return\n        /* \"contracts/cow.sol\":152:171  uint public dayMilk */\n    tag_12:\n      callvalue\n      dup1\n      iszero\n      tag_62\n      jumpi\n      0x00\n      dup1\n      revert\n    tag_62:\n      pop\n      tag_63\n      tag_64\n      jump\t// in\n    tag_63:\n      mload(0x40)\n      tag_65\n      swap2\n      swap1\n      tag_35\n      jump\t// in\n    tag_65:\n      mload(0x40)\n      dup1\n      swap2\n      sub\n      swap1\n      return\n        /* \"contracts/cow.sol\":796:890  function getCowColor() public view returns (string memory) {... */\n    tag_16:\n        /* \"contracts/cow.sol\":840:853  string memory */\n      0x60\n        /* \"contracts/cow.sol\":873:882  cowCollor */\n      0x04\n        /* \"contracts/cow.sol\":866:882  return cowCollor */\n      dup1\n      sload\n      tag_67\n      swap1\n      tag_68\n      jump\t// in\n    tag_67:\n      dup1\n      0x1f\n      add\n      0x20\n      dup1\n      swap2\n      div\n      mul\n      0x20\n      add\n      mload(0x40)\n      swap1\n      dup2\n      add\n      0x40\n      mstore\n      dup1\n      swap3\n      swap2\n      swap1\n      dup2\n      dup2\n      mstore\n      0x20\n      add\n      dup3\n      dup1\n      sload\n      tag_69\n      swap1\n      tag_68\n      jump\t// in\n    tag_69:\n      dup1\n      iszero\n      tag_70\n      jumpi\n      dup1\n      0x1f\n      lt\n      tag_71\n      jumpi\n      0x0100\n      dup1\n      dup4\n      sload\n      div\n      mul\n      dup4\n      mstore\n      swap2\n      0x20\n      add\n      swap2\n      jump(tag_70)\n    tag_71:\n      dup3\n      add\n      swap2\n      swap1\n      0x00\n      mstore\n      keccak256(0x00, 0x20)\n      swap1\n    tag_72:\n      dup2\n      sload\n      dup2\n      mstore\n      swap1\n      0x01\n      add\n      swap1\n      0x20\n      add\n      dup1\n      dup4\n      gt\n      tag_72\n      jumpi\n      dup3\n      swap1\n      sub\n      0x1f\n      and\n      dup3\n      add\n      swap2\n    tag_70:\n      pop\n      pop\n      pop\n      pop\n      pop\n      swap1\n      pop\n        /* \"contracts/cow.sol\":796:890  function getCowColor() public view returns (string memory) {... */\n      swap1\n      jump\t// out\n        /* \"contracts/cow.sol\":1578:2240  function milkCow(uint _animalId) public payable {... */\n    tag_22:\n        /* \"contracts/cow.sol\":1673:1683  msg.sender */\n      caller\n        /* \"contracts/cow.sol\":1645:1683  animalToOwner[_animalId] == msg.sender */\n      0xffffffffffffffffffffffffffffffffffffffff\n      and\n        /* \"contracts/cow.sol\":1645:1658  animalToOwner */\n      0x01\n        /* \"contracts/cow.sol\":1645:1669  animalToOwner[_animalId] */\n      0x00\n        /* \"contracts/cow.sol\":1659:1668  _animalId */\n      dup4\n        /* \"contracts/cow.sol\":1645:1669  animalToOwner[_animalId] */\n      dup2\n      mstore\n      0x20\n      add\n      swap1\n      dup2\n      mstore\n      0x20\n      add\n      0x00\n      keccak256\n      0x00\n      swap1\n      sload\n      swap1\n      0x0100\n      exp\n      swap1\n      div\n      0xffffffffffffffffffffffffffffffffffffffff\n      and\n        /* \"contracts/cow.sol\":1645:1683  animalToOwner[_animalId] == msg.sender */\n      0xffffffffffffffffffffffffffffffffffffffff\n      and\n      eq\n        /* \"contracts/cow.sol\":1637:1719  require(animalToOwner[_animalId] == msg.sender, \"You can only milk your own cow.\") */\n      tag_74\n      jumpi\n      mload(0x40)\n      0x08c379a000000000000000000000000000000000000000000000000000000000\n      dup2\n      mstore\n      0x04\n      add\n      tag_75\n      swap1\n      tag_76\n      jump\t// in\n    tag_75:\n      mload(0x40)\n      dup1\n      swap2\n      sub\n      swap1\n      revert\n    tag_74:\n        /* \"contracts/cow.sol\":1764:1767  365 */\n      0x016d\n        /* \"contracts/cow.sol\":1738:1745  animals */\n      0x02\n        /* \"contracts/cow.sol\":1746:1755  _animalId */\n      dup3\n        /* \"contracts/cow.sol\":1738:1756  animals[_animalId] */\n      dup2\n      sload\n      dup2\n      lt\n      tag_77\n      jumpi\n      tag_78\n      tag_79\n      jump\t// in\n    tag_78:\n    tag_77:\n      swap1\n      0x00\n      mstore\n      keccak256(0x00, 0x20)\n      swap1\n      0x03\n      mul\n      add\n        /* \"contracts/cow.sol\":1738:1760  animals[_animalId].age */\n      0x01\n      add\n      sload\n        /* \"contracts/cow.sol\":1738:1767  animals[_animalId].age >= 365 */\n      lt\n      iszero\n        /* \"contracts/cow.sol\":1730:1802  require(animals[_animalId].age >= 365, \"This cow is too young to milk.\") */\n      tag_81\n      jumpi\n      mload(0x40)\n      0x08c379a000000000000000000000000000000000000000000000000000000000\n      dup2\n      mstore\n      0x04\n      add\n      tag_82\n      swap1\n      tag_83\n      jump\t// in\n    tag_82:\n      mload(0x40)\n      dup1\n      swap2\n      sub\n      swap1\n      revert\n    tag_81:\n        /* \"contracts/cow.sol\":1857:1858  0 */\n      0x00\n        /* \"contracts/cow.sol\":1821:1828  animals */\n      0x02\n        /* \"contracts/cow.sol\":1829:1838  _animalId */\n      dup3\n        /* \"contracts/cow.sol\":1821:1839  animals[_animalId] */\n      dup2\n      sload\n      dup2\n      lt\n      tag_84\n      jumpi\n      tag_85\n      tag_79\n      jump\t// in\n    tag_85:\n    tag_84:\n      swap1\n      0x00\n      mstore\n      keccak256(0x00, 0x20)\n      swap1\n      0x03\n      mul\n      add\n        /* \"contracts/cow.sol\":1821:1854  animals[_animalId].numberOfAnimal */\n      0x02\n      add\n      sload\n        /* \"contracts/cow.sol\":1821:1858  animals[_animalId].numberOfAnimal > 0 */\n      gt\n        /* \"contracts/cow.sol\":1813:1884  require(animals[_animalId].numberOfAnimal > 0, \"This cow has no milk.\") */\n      tag_87\n      jumpi\n      mload(0x40)\n      0x08c379a000000000000000000000000000000000000000000000000000000000\n      dup2\n      mstore\n      0x04\n      add\n      tag_88\n      swap1\n      tag_89\n      jump\t// in\n    tag_88:\n      mload(0x40)\n      dup1\n      swap2\n      sub\n      swap1\n      revert\n    tag_87:\n        /* \"contracts/cow.sol\":300:310  0.01 ether */\n      0x2386f26fc10000\n        /* \"contracts/cow.sol\":1903:1912  msg.value */\n      callvalue\n        /* \"contracts/cow.sol\":1903:1925  msg.value == milkPrice */\n      eq\n        /* \"contracts/cow.sol\":1895:1978  require(msg.value == milkPrice, \"Please send 0.1 ether to get milk from this cow.\") */\n      tag_90\n      jumpi\n      mload(0x40)\n      0x08c379a000000000000000000000000000000000000000000000000000000000\n      dup2\n      mstore\n      0x04\n      add\n      tag_91\n      swap1\n      tag_92\n      jump\t// in\n    tag_91:\n      mload(0x40)\n      dup1\n      swap2\n      sub\n      swap1\n      revert\n    tag_90:\n        /* \"contracts/cow.sol\":2120:2130  msg.sender */\n      caller\n        /* \"contracts/cow.sol\":2112:2140  payable(msg.sender).transfer */\n      0xffffffffffffffffffffffffffffffffffffffff\n      and\n        /* \"contracts/cow.sol\":2112:2151  payable(msg.sender).transfer(msg.value) */\n      0x08fc\n        /* \"contracts/cow.sol\":2141:2150  msg.value */\n      callvalue\n        /* \"contracts/cow.sol\":2112:2151  payable(msg.sender).transfer(msg.value) */\n      swap1\n      dup2\n      iszero\n      mul\n      swap1\n      mload(0x40)\n      0x00\n      mload(0x40)\n      dup1\n      dup4\n      sub\n      dup2\n      dup6\n      dup9\n      dup9\n      call\n      swap4\n      pop\n      pop\n      pop\n      pop\n      iszero\n      dup1\n      iszero\n      tag_94\n      jumpi\n      returndatasize\n      0x00\n      dup1\n      returndatacopy\n      revert(0x00, returndatasize)\n    tag_94:\n      pop\n        /* \"contracts/cow.sol\":2197:2204  animals */\n      0x02\n        /* \"contracts/cow.sol\":2205:2214  _animalId */\n      dup2\n        /* \"contracts/cow.sol\":2197:2215  animals[_animalId] */\n      dup2\n      sload\n      dup2\n      lt\n      tag_95\n      jumpi\n      tag_96\n      tag_79\n      jump\t// in\n    tag_96:\n    tag_95:\n      swap1\n      0x00\n      mstore\n      keccak256(0x00, 0x20)\n      swap1\n      0x03\n      mul\n      add\n        /* \"contracts/cow.sol\":2197:2230  animals[_animalId].numberOfAnimal */\n      0x02\n      add\n      0x00\n        /* \"contracts/cow.sol\":2197:2232  animals[_animalId].numberOfAnimal-- */\n      dup2\n      sload\n      dup1\n      swap3\n      swap2\n      swap1\n      tag_98\n      swap1\n      tag_99\n      jump\t// in\n    tag_98:\n      swap2\n      swap1\n      pop\n      sstore\n      pop\n        /* \"contracts/cow.sol\":1578:2240  function milkCow(uint _animalId) public payable {... */\n      pop\n      jump\t// out\n        /* \"contracts/cow.sol\":219:242  string public cowCollor */\n    tag_25:\n      0x04\n      dup1\n      sload\n      tag_100\n      swap1\n      tag_68\n      jump\t// in\n    tag_100:\n      dup1\n      0x1f\n      add\n      0x20\n      dup1\n      swap2\n      div\n      mul\n      0x20\n      add\n      mload(0x40)\n      swap1\n      dup2\n      add\n      0x40\n      mstore\n      dup1\n      swap3\n      swap2\n      swap1\n      dup2\n      dup2\n      mstore\n      0x20\n      add\n      dup3\n      dup1\n      sload\n      tag_101\n      swap1\n      tag_68\n      jump\t// in\n    tag_101:\n      dup1\n      iszero\n      tag_102\n      jumpi\n      dup1\n      0x1f\n      lt\n      tag_103\n      jumpi\n      0x0100\n      dup1\n      dup4\n      sload\n      div\n      mul\n      dup4\n      mstore\n      swap2\n      0x20\n      add\n      swap2\n      jump(tag_102)\n    tag_103:\n      dup3\n      add\n      swap2\n      swap1\n      0x00\n      mstore\n      keccak256(0x00, 0x20)\n      swap1\n    tag_104:\n      dup2\n      sload\n      dup2\n      mstore\n      swap1\n      0x01\n      add\n      swap1\n      0x20\n      add\n      dup1\n      dup4\n      gt\n      tag_104\n      jumpi\n      dup3\n      swap1\n      sub\n      0x1f\n      and\n      dup3\n      add\n      swap2\n    tag_102:\n      pop\n      pop\n      pop\n      pop\n      pop\n      dup2\n      jump\t// out\n        /* \"contracts/cow.sol\":928:1240  function buyCow(string memory _kind, uint _age, uint _dayMilk, string memory _cowCollor ) public payable {... */\n    tag_30:\n        /* \"contracts/cow.sol\":1065:1072  1 ether */\n      0x0de0b6b3a7640000\n        /* \"contracts/cow.sol\":1052:1061  msg.value */\n      callvalue\n        /* \"contracts/cow.sol\":1052:1072  msg.value >= 1 ether */\n      lt\n      iszero\n        /* \"contracts/cow.sol\":1044:1124  require(msg.value >= 1 ether, \"You need to send at least 1 ether to buy a cow.\") */\n      tag_106\n      jumpi\n      mload(0x40)\n      0x08c379a000000000000000000000000000000000000000000000000000000000\n      dup2\n      mstore\n      0x04\n      add\n      tag_107\n      swap1\n      tag_108\n      jump\t// in\n    tag_107:\n      mload(0x40)\n      dup1\n      swap2\n      sub\n      swap1\n      revert\n    tag_106:\n        /* \"contracts/cow.sol\":1135:1179  createCow(_kind, _age, _dayMilk, _cowCollor) */\n      tag_109\n        /* \"contracts/cow.sol\":1145:1150  _kind */\n      dup5\n        /* \"contracts/cow.sol\":1152:1156  _age */\n      dup5\n        /* \"contracts/cow.sol\":1158:1166  _dayMilk */\n      dup5\n        /* \"contracts/cow.sol\":1168:1178  _cowCollor */\n      dup5\n        /* \"contracts/cow.sol\":1135:1144  createCow */\n      tag_110\n        /* \"contracts/cow.sol\":1135:1179  createCow(_kind, _age, _dayMilk, _cowCollor) */\n      jump\t// in\n    tag_109:\n        /* \"contracts/cow.sol\":1206:1210  this */\n      address\n        /* \"contracts/cow.sol\":1190:1221  payable(address(this)).transfer */\n      0xffffffffffffffffffffffffffffffffffffffff\n      and\n        /* \"contracts/cow.sol\":1190:1232  payable(address(this)).transfer(msg.value) */\n      0x08fc\n        /* \"contracts/cow.sol\":1222:1231  msg.value */\n      callvalue\n        /* \"contracts/cow.sol\":1190:1232  payable(address(this)).transfer(msg.value) */\n      swap1\n      dup2\n      iszero\n      mul\n      swap1\n      mload(0x40)\n      0x00\n      mload(0x40)\n      dup1\n      dup4\n      sub\n      dup2\n      dup6\n      dup9\n      dup9\n      call\n      swap4\n      pop\n      pop\n      pop\n      pop\n      iszero\n      dup1\n      iszero\n      tag_112\n      jumpi\n      returndatasize\n      0x00\n      dup1\n      returndatacopy\n      revert(0x00, returndatasize)\n    tag_112:\n      pop\n        /* \"contracts/cow.sol\":928:1240  function buyCow(string memory _kind, uint _age, uint _dayMilk, string memory _cowCollor ) public payable {... */\n      pop\n      pop\n      pop\n      pop\n      jump\t// out\n        /* \"contracts/cow.sol\":267:310  uint public constant milkPrice = 0.01 ether */\n    tag_33:\n        /* \"contracts/cow.sol\":300:310  0.01 ether */\n      0x2386f26fc10000\n        /* \"contracts/cow.sol\":267:310  uint public constant milkPrice = 0.01 ether */\n      dup2\n      jump\t// out\n        /* \"contracts/cow.sol\":669:751  function getDayMilk() public view returns (uint) {... */\n    tag_38:\n        /* \"contracts/cow.sol\":712:716  uint */\n      0x00\n        /* \"contracts/cow.sol\":736:743  dayMilk */\n      sload(0x03)\n        /* \"contracts/cow.sol\":729:743  return dayMilk */\n      swap1\n      pop\n        /* \"contracts/cow.sol\":669:751  function getDayMilk() public view returns (uint) {... */\n      swap1\n      jump\t// out\n        /* \"contracts/animals.sol\":289:312  Animal[] public animals */\n    tag_43:\n      0x02\n      dup2\n      dup2\n      sload\n      dup2\n      lt\n      tag_114\n      jumpi\n      0x00\n      dup1\n      revert\n    tag_114:\n      swap1\n      0x00\n      mstore\n      keccak256(0x00, 0x20)\n      swap1\n      0x03\n      mul\n      add\n      0x00\n      swap2\n      pop\n      swap1\n      pop\n      dup1\n      0x00\n      add\n      dup1\n      sload\n      tag_116\n      swap1\n      tag_68\n      jump\t// in\n    tag_116:\n      dup1\n      0x1f\n      add\n      0x20\n      dup1\n      swap2\n      div\n      mul\n      0x20\n      add\n      mload(0x40)\n      swap1\n      dup2\n      add\n      0x40\n      mstore\n      dup1\n      swap3\n      swap2\n      swap1\n      dup2\n      dup2\n      mstore\n      0x20\n      add\n      dup3\n      dup1\n      sload\n      tag_117\n      swap1\n      tag_68\n      jump\t// in\n    tag_117:\n      dup1\n      iszero\n      tag_118\n      jumpi\n      dup1\n      0x1f\n      lt\n      tag_119\n      jumpi\n      0x0100\n      dup1\n      dup4\n      sload\n      div\n      mul\n      dup4\n      mstore\n      swap2\n      0x20\n      add\n      swap2\n      jump(tag_118)\n    tag_119:\n      dup3\n      add\n      swap2\n      swap1\n      0x00\n      mstore\n      keccak256(0x00, 0x20)\n      swap1\n    tag_120:\n      dup2\n      sload\n      dup2\n      mstore\n      swap1\n      0x01\n      add\n      swap1\n      0x20\n      add\n      dup1\n      dup4\n      gt\n      tag_120\n      jumpi\n      dup3\n      swap1\n      sub\n      0x1f\n      and\n      dup3\n      add\n      swap2\n    tag_118:\n      pop\n      pop\n      pop\n      pop\n      pop\n      swap1\n      dup1\n      0x01\n      add\n      sload\n      swap1\n      dup1\n      0x02\n      add\n      sload\n      swap1\n      pop\n      dup4\n      jump\t// out\n        /* \"contracts/cow.sol\":1271:1570  function feedCow(uint _animalId) public view  {... */\n    tag_49:\n        /* \"contracts/cow.sol\":1364:1374  msg.sender */\n      caller\n        /* \"contracts/cow.sol\":1336:1374  animalToOwner[_animalId] == msg.sender */\n      0xffffffffffffffffffffffffffffffffffffffff\n      and\n        /* \"contracts/cow.sol\":1336:1349  animalToOwner */\n      0x01\n        /* \"contracts/cow.sol\":1336:1360  animalToOwner[_animalId] */\n      0x00\n        /* \"contracts/cow.sol\":1350:1359  _animalId */\n      dup4\n        /* \"contracts/cow.sol\":1336:1360  animalToOwner[_animalId] */\n      dup2\n      mstore\n      0x20\n      add\n      swap1\n      dup2\n      mstore\n      0x20\n      add\n      0x00\n      keccak256\n      0x00\n      swap1\n      sload\n      swap1\n      0x0100\n      exp\n      swap1\n      div\n      0xffffffffffffffffffffffffffffffffffffffff\n      and\n        /* \"contracts/cow.sol\":1336:1374  animalToOwner[_animalId] == msg.sender */\n      0xffffffffffffffffffffffffffffffffffffffff\n      and\n      eq\n        /* \"contracts/cow.sol\":1328:1410  require(animalToOwner[_animalId] == msg.sender, \"You can only feed your own cow.\") */\n      tag_122\n      jumpi\n      mload(0x40)\n      0x08c379a000000000000000000000000000000000000000000000000000000000\n      dup2\n      mstore\n      0x04\n      add\n      tag_123\n      swap1\n      tag_124\n      jump\t// in\n    tag_123:\n      mload(0x40)\n      dup1\n      swap2\n      sub\n      swap1\n      revert\n    tag_122:\n        /* \"contracts/cow.sol\":1454:1457  365 */\n      0x016d\n        /* \"contracts/cow.sol\":1429:1436  animals */\n      0x02\n        /* \"contracts/cow.sol\":1437:1446  _animalId */\n      dup3\n        /* \"contracts/cow.sol\":1429:1447  animals[_animalId] */\n      dup2\n      sload\n      dup2\n      lt\n      tag_125\n      jumpi\n      tag_126\n      tag_79\n      jump\t// in\n    tag_126:\n    tag_125:\n      swap1\n      0x00\n      mstore\n      keccak256(0x00, 0x20)\n      swap1\n      0x03\n      mul\n      add\n        /* \"contracts/cow.sol\":1429:1451  animals[_animalId].age */\n      0x01\n      add\n      sload\n        /* \"contracts/cow.sol\":1429:1457  animals[_animalId].age < 365 */\n      lt\n        /* \"contracts/cow.sol\":1421:1490  require(animals[_animalId].age < 365, \"This cow is too old to feed.\") */\n      tag_128\n      jumpi\n      mload(0x40)\n      0x08c379a000000000000000000000000000000000000000000000000000000000\n      dup2\n      mstore\n      0x04\n      add\n      tag_129\n      swap1\n      tag_130\n      jump\t// in\n    tag_129:\n      mload(0x40)\n      dup1\n      swap2\n      sub\n      swap1\n      revert\n    tag_128:\n        /* \"contracts/cow.sol\":1271:1570  function feedCow(uint _animalId) public view  {... */\n      pop\n      jump\t// out\n        /* \"contracts/animals.sol\":187:224  mapping(address => uint) public level */\n    tag_54:\n      mstore(0x20, 0x00)\n      dup1\n      0x00\n      mstore\n      keccak256(0x00, 0x40)\n      0x00\n      swap2\n      pop\n      swap1\n      pop\n      sload\n      dup2\n      jump\t// out\n        /* \"contracts/animals.sol\":231:276  mapping(uint => address) public animalToOwner */\n    tag_59:\n      mstore(0x20, 0x01)\n      dup1\n      0x00\n      mstore\n      keccak256(0x00, 0x40)\n      0x00\n      swap2\n      pop\n      sload\n      swap1\n      0x0100\n      exp\n      swap1\n      div\n      0xffffffffffffffffffffffffffffffffffffffff\n      and\n      dup2\n      jump\t// out\n        /* \"contracts/cow.sol\":152:171  uint public dayMilk */\n    tag_64:\n      sload(0x03)\n      dup2\n      jump\t// out\n        /* \"contracts/cow.sol\":375:600  function createCow(string memory _kind, uint _age, uint _dayMilk, string memory _cowCollor) internal {... */\n    tag_110:\n        /* \"contracts/cow.sol\":487:494  animals */\n      0x02\n        /* \"contracts/cow.sol\":500:529  Animal(_kind, _age, _dayMilk) */\n      mload(0x40)\n      dup1\n      0x60\n      add\n      0x40\n      mstore\n      dup1\n        /* \"contracts/cow.sol\":507:512  _kind */\n      dup7\n        /* \"contracts/cow.sol\":500:529  Animal(_kind, _age, _dayMilk) */\n      dup2\n      mstore\n      0x20\n      add\n        /* \"contracts/cow.sol\":514:518  _age */\n      dup6\n        /* \"contracts/cow.sol\":500:529  Animal(_kind, _age, _dayMilk) */\n      dup2\n      mstore\n      0x20\n      add\n        /* \"contracts/cow.sol\":520:528  _dayMilk */\n      dup5\n        /* \"contracts/cow.sol\":500:529  Animal(_kind, _age, _dayMilk) */\n      dup2\n      mstore\n      pop\n        /* \"contracts/cow.sol\":487:530  animals.push(Animal(_kind, _age, _dayMilk)) */\n      swap1\n      dup1\n      0x01\n      dup2\n      sload\n      add\n      dup1\n      dup3\n      sstore\n      dup1\n      swap2\n      pop\n      pop\n      0x01\n      swap1\n      sub\n      swap1\n      0x00\n      mstore\n      keccak256(0x00, 0x20)\n      swap1\n      0x03\n      mul\n      add\n      0x00\n      swap1\n      swap2\n      swap1\n      swap2\n      swap1\n      swap2\n      pop\n      0x00\n      dup3\n      add\n      mload\n      dup2\n      0x00\n      add\n      swap1\n      dup2\n      tag_133\n      swap2\n      swap1\n      tag_134\n      jump\t// in\n    tag_133:\n      pop\n      0x20\n      dup3\n      add\n      mload\n      dup2\n      0x01\n      add\n      sstore\n      0x40\n      dup3\n      add\n      mload\n      dup2\n      0x02\n      add\n      sstore\n      pop\n      pop\n        /* \"contracts/cow.sol\":551:559  _dayMilk */\n      dup2\n        /* \"contracts/cow.sol\":541:548  dayMilk */\n      0x03\n        /* \"contracts/cow.sol\":541:559  dayMilk = _dayMilk */\n      dup2\n      swap1\n      sstore\n      pop\n        /* \"contracts/cow.sol\":582:592  _cowCollor */\n      dup1\n        /* \"contracts/cow.sol\":570:579  cowCollor */\n      0x04\n        /* \"contracts/cow.sol\":570:592  cowCollor = _cowCollor */\n      swap1\n      dup2\n      tag_135\n      swap2\n      swap1\n      tag_134\n      jump\t// in\n    tag_135:\n      pop\n        /* \"contracts/cow.sol\":375:600  function createCow(string memory _kind, uint _age, uint _dayMilk, string memory _cowCollor) internal {... */\n      pop\n      pop\n      pop\n      pop\n      jump\t// out\n        /* \"#utility.yul\":7:106   */\n    tag_136:\n        /* \"#utility.yul\":59:65   */\n      0x00\n        /* \"#utility.yul\":93:98   */\n      dup2\n        /* \"#utility.yul\":87:99   */\n      mload\n        /* \"#utility.yul\":77:99   */\n      swap1\n      pop\n        /* \"#utility.yul\":7:106   */\n      swap2\n      swap1\n      pop\n      jump\t// out\n        /* \"#utility.yul\":112:281   */\n    tag_137:\n        /* \"#utility.yul\":196:207   */\n      0x00\n        /* \"#utility.yul\":230:236   */\n      dup3\n        /* \"#utility.yul\":225:228   */\n      dup3\n        /* \"#utility.yul\":218:237   */\n      mstore\n        /* \"#utility.yul\":270:274   */\n      0x20\n        /* \"#utility.yul\":265:268   */\n      dup3\n        /* \"#utility.yul\":261:275   */\n      add\n        /* \"#utility.yul\":246:275   */\n      swap1\n      pop\n        /* \"#utility.yul\":112:281   */\n      swap3\n      swap2\n      pop\n      pop\n      jump\t// out\n        /* \"#utility.yul\":287:533   */\n    tag_138:\n        /* \"#utility.yul\":368:369   */\n      0x00\n        /* \"#utility.yul\":378:491   */\n    tag_197:\n        /* \"#utility.yul\":392:398   */\n      dup4\n        /* \"#utility.yul\":389:390   */\n      dup2\n        /* \"#utility.yul\":386:399   */\n      lt\n        /* \"#utility.yul\":378:491   */\n      iszero\n      tag_199\n      jumpi\n        /* \"#utility.yul\":477:478   */\n      dup1\n        /* \"#utility.yul\":472:475   */\n      dup3\n        /* \"#utility.yul\":468:479   */\n      add\n        /* \"#utility.yul\":462:480   */\n      mload\n        /* \"#utility.yul\":458:459   */\n      dup2\n        /* \"#utility.yul\":453:456   */\n      dup5\n        /* \"#utility.yul\":449:460   */\n      add\n        /* \"#utility.yul\":442:481   */\n      mstore\n        /* \"#utility.yul\":414:416   */\n      0x20\n        /* \"#utility.yul\":411:412   */\n      dup2\n        /* \"#utility.yul\":407:417   */\n      add\n        /* \"#utility.yul\":402:417   */\n      swap1\n      pop\n        /* \"#utility.yul\":378:491   */\n      jump(tag_197)\n    tag_199:\n        /* \"#utility.yul\":525:526   */\n      0x00\n        /* \"#utility.yul\":516:522   */\n      dup5\n        /* \"#utility.yul\":511:514   */\n      dup5\n        /* \"#utility.yul\":507:523   */\n      add\n        /* \"#utility.yul\":500:527   */\n      mstore\n        /* \"#utility.yul\":349:533   */\n      pop\n        /* \"#utility.yul\":287:533   */\n      pop\n      pop\n      pop\n      jump\t// out\n        /* \"#utility.yul\":539:641   */\n    tag_139:\n        /* \"#utility.yul\":580:586   */\n      0x00\n        /* \"#utility.yul\":631:633   */\n      0x1f\n        /* \"#utility.yul\":627:634   */\n      not\n        /* \"#utility.yul\":622:624   */\n      0x1f\n        /* \"#utility.yul\":615:620   */\n      dup4\n        /* \"#utility.yul\":611:625   */\n      add\n        /* \"#utility.yul\":607:635   */\n      and\n        /* \"#utility.yul\":597:635   */\n      swap1\n      pop\n        /* \"#utility.yul\":539:641   */\n      swap2\n      swap1\n      pop\n      jump\t// out\n        /* \"#utility.yul\":647:1024   */\n    tag_140:\n        /* \"#utility.yul\":735:738   */\n      0x00\n        /* \"#utility.yul\":763:802   */\n      tag_202\n        /* \"#utility.yul\":796:801   */\n      dup3\n        /* \"#utility.yul\":763:802   */\n      tag_136\n      jump\t// in\n    tag_202:\n        /* \"#utility.yul\":818:889   */\n      tag_203\n        /* \"#utility.yul\":882:888   */\n      dup2\n        /* \"#utility.yul\":877:880   */\n      dup6\n        /* \"#utility.yul\":818:889   */\n      tag_137\n      jump\t// in\n    tag_203:\n        /* \"#utility.yul\":811:889   */\n      swap4\n      pop\n        /* \"#utility.yul\":898:963   */\n      tag_204\n        /* \"#utility.yul\":956:962   */\n      dup2\n        /* \"#utility.yul\":951:954   */\n      dup6\n        /* \"#utility.yul\":944:948   */\n      0x20\n        /* \"#utility.yul\":937:942   */\n      dup7\n        /* \"#utility.yul\":933:949   */\n      add\n        /* \"#utility.yul\":898:963   */\n      tag_138\n      jump\t// in\n    tag_204:\n        /* \"#utility.yul\":988:1017   */\n      tag_205\n        /* \"#utility.yul\":1010:1016   */\n      dup2\n        /* \"#utility.yul\":988:1017   */\n      tag_139\n      jump\t// in\n    tag_205:\n        /* \"#utility.yul\":983:986   */\n      dup5\n        /* \"#utility.yul\":979:1018   */\n      add\n        /* \"#utility.yul\":972:1018   */\n      swap2\n      pop\n        /* \"#utility.yul\":739:1024   */\n      pop\n        /* \"#utility.yul\":647:1024   */\n      swap3\n      swap2\n      pop\n      pop\n      jump\t// out\n        /* \"#utility.yul\":1030:1343   */\n    tag_18:\n        /* \"#utility.yul\":1143:1147   */\n      0x00\n        /* \"#utility.yul\":1181:1183   */\n      0x20\n        /* \"#utility.yul\":1170:1179   */\n      dup3\n        /* \"#utility.yul\":1166:1184   */\n      add\n        /* \"#utility.yul\":1158:1184   */\n      swap1\n      pop\n        /* \"#utility.yul\":1230:1239   */\n      dup2\n        /* \"#utility.yul\":1224:1228   */\n      dup2\n        /* \"#utility.yul\":1220:1240   */\n      sub\n        /* \"#utility.yul\":1216:1217   */\n      0x00\n        /* \"#utility.yul\":1205:1214   */\n      dup4\n        /* \"#utility.yul\":1201:1218   */\n      add\n        /* \"#utility.yul\":1194:1241   */\n      mstore\n        /* \"#utility.yul\":1258:1336   */\n      tag_207\n        /* \"#utility.yul\":1331:1335   */\n      dup2\n        /* \"#utility.yul\":1322:1328   */\n      dup5\n        /* \"#utility.yul\":1258:1336   */\n      tag_140\n      jump\t// in\n    tag_207:\n        /* \"#utility.yul\":1250:1336   */\n      swap1\n      pop\n        /* \"#utility.yul\":1030:1343   */\n      swap3\n      swap2\n      pop\n      pop\n      jump\t// out\n        /* \"#utility.yul\":1349:1424   */\n    tag_141:\n        /* \"#utility.yul\":1382:1388   */\n      0x00\n        /* \"#utility.yul\":1415:1417   */\n      0x40\n        /* \"#utility.yul\":1409:1418   */\n      mload\n        /* \"#utility.yul\":1399:1418   */\n      swap1\n      pop\n        /* \"#utility.yul\":1349:1424   */\n      swap1\n      jump\t// out\n        /* \"#utility.yul\":1430:1547   */\n    tag_142:\n        /* \"#utility.yul\":1539:1540   */\n      0x00\n        /* \"#utility.yul\":1536:1537   */\n      dup1\n        /* \"#utility.yul\":1529:1541   */\n      revert\n        /* \"#utility.yul\":1553:1670   */\n    tag_143:\n        /* \"#utility.yul\":1662:1663   */\n      0x00\n        /* \"#utility.yul\":1659:1660   */\n      dup1\n        /* \"#utility.yul\":1652:1664   */\n      revert\n        /* \"#utility.yul\":1676:1753   */\n    tag_144:\n        /* \"#utility.yul\":1713:1720   */\n      0x00\n        /* \"#utility.yul\":1742:1747   */\n      dup2\n        /* \"#utility.yul\":1731:1747   */\n      swap1\n      pop\n        /* \"#utility.yul\":1676:1753   */\n      swap2\n      swap1\n      pop\n      jump\t// out\n        /* \"#utility.yul\":1759:1881   */\n    tag_145:\n        /* \"#utility.yul\":1832:1856   */\n      tag_213\n        /* \"#utility.yul\":1850:1855   */\n      dup2\n        /* \"#utility.yul\":1832:1856   */\n      tag_144\n      jump\t// in\n    tag_213:\n        /* \"#utility.yul\":1825:1830   */\n      dup2\n        /* \"#utility.yul\":1822:1857   */\n      eq\n        /* \"#utility.yul\":1812:1875   */\n      tag_214\n      jumpi\n        /* \"#utility.yul\":1871:1872   */\n      0x00\n        /* \"#utility.yul\":1868:1869   */\n      dup1\n        /* \"#utility.yul\":1861:1873   */\n      revert\n        /* \"#utility.yul\":1812:1875   */\n    tag_214:\n        /* \"#utility.yul\":1759:1881   */\n      pop\n      jump\t// out\n        /* \"#utility.yul\":1887:2026   */\n    tag_146:\n        /* \"#utility.yul\":1933:1938   */\n      0x00\n        /* \"#utility.yul\":1971:1977   */\n      dup2\n        /* \"#utility.yul\":1958:1978   */\n      calldataload\n        /* \"#utility.yul\":1949:1978   */\n      swap1\n      pop\n        /* \"#utility.yul\":1987:2020   */\n      tag_216\n        /* \"#utility.yul\":2014:2019   */\n      dup2\n        /* \"#utility.yul\":1987:2020   */\n      tag_145\n      jump\t// in\n    tag_216:\n        /* \"#utility.yul\":1887:2026   */\n      swap3\n      swap2\n      pop\n      pop\n      jump\t// out\n        /* \"#utility.yul\":2032:2361   */\n    tag_21:\n        /* \"#utility.yul\":2091:2097   */\n      0x00\n        /* \"#utility.yul\":2140:2142   */\n      0x20\n        /* \"#utility.yul\":2128:2137   */\n      dup3\n        /* \"#utility.yul\":2119:2126   */\n      dup5\n        /* \"#utility.yul\":2115:2138   */\n      sub\n        /* \"#utility.yul\":2111:2143   */\n      slt\n        /* \"#utility.yul\":2108:2227   */\n      iszero\n      tag_218\n      jumpi\n        /* \"#utility.yul\":2146:2225   */\n      tag_219\n      tag_142\n      jump\t// in\n    tag_219:\n        /* \"#utility.yul\":2108:2227   */\n    tag_218:\n        /* \"#utility.yul\":2266:2267   */\n      0x00\n        /* \"#utility.yul\":2291:2344   */\n      tag_220\n        /* \"#utility.yul\":2336:2343   */\n      dup5\n        /* \"#utility.yul\":2327:2333   */\n      dup3\n        /* \"#utility.yul\":2316:2325   */\n      dup6\n        /* \"#utility.yul\":2312:2334   */\n      add\n        /* \"#utility.yul\":2291:2344   */\n      tag_146\n      jump\t// in\n    tag_220:\n        /* \"#utility.yul\":2281:2344   */\n      swap2\n      pop\n        /* \"#utility.yul\":2237:2354   */\n      pop\n        /* \"#utility.yul\":2032:2361   */\n      swap3\n      swap2\n      pop\n      pop\n      jump\t// out\n        /* \"#utility.yul\":2367:2484   */\n    tag_147:\n        /* \"#utility.yul\":2476:2477   */\n      0x00\n        /* \"#utility.yul\":2473:2474   */\n      dup1\n        /* \"#utility.yul\":2466:2478   */\n      revert\n        /* \"#utility.yul\":2490:2607   */\n    tag_148:\n        /* \"#utility.yul\":2599:2600   */\n      0x00\n        /* \"#utility.yul\":2596:2597   */\n      dup1\n        /* \"#utility.yul\":2589:2601   */\n      revert\n        /* \"#utility.yul\":2613:2793   */\n    tag_149:\n        /* \"#utility.yul\":2661:2738   */\n      0x4e487b7100000000000000000000000000000000000000000000000000000000\n        /* \"#utility.yul\":2658:2659   */\n      0x00\n        /* \"#utility.yul\":2651:2739   */\n      mstore\n        /* \"#utility.yul\":2758:2762   */\n      0x41\n        /* \"#utility.yul\":2755:2756   */\n      0x04\n        /* \"#utility.yul\":2748:2763   */\n      mstore\n        /* \"#utility.yul\":2782:2786   */\n      0x24\n        /* \"#utility.yul\":2779:2780   */\n      0x00\n        /* \"#utility.yul\":2772:2787   */\n      revert\n        /* \"#utility.yul\":2799:3080   */\n    tag_150:\n        /* \"#utility.yul\":2882:2909   */\n      tag_225\n        /* \"#utility.yul\":2904:2908   */\n      dup3\n        /* \"#utility.yul\":2882:2909   */\n      tag_139\n      jump\t// in\n    tag_225:\n        /* \"#utility.yul\":2874:2880   */\n      dup2\n        /* \"#utility.yul\":2870:2910   */\n      add\n        /* \"#utility.yul\":3012:3018   */\n      dup2\n        /* \"#utility.yul\":3000:3010   */\n      dup2\n        /* \"#utility.yul\":2997:3019   */\n      lt\n        /* \"#utility.yul\":2976:2994   */\n      0xffffffffffffffff\n        /* \"#utility.yul\":2964:2974   */\n      dup3\n        /* \"#utility.yul\":2961:2995   */\n      gt\n        /* \"#utility.yul\":2958:3020   */\n      or\n        /* \"#utility.yul\":2955:3043   */\n      iszero\n      tag_226\n      jumpi\n        /* \"#utility.yul\":3023:3041   */\n      tag_227\n      tag_149\n      jump\t// in\n    tag_227:\n        /* \"#utility.yul\":2955:3043   */\n    tag_226:\n        /* \"#utility.yul\":3063:3073   */\n      dup1\n        /* \"#utility.yul\":3059:3061   */\n      0x40\n        /* \"#utility.yul\":3052:3074   */\n      mstore\n        /* \"#utility.yul\":2842:3080   */\n      pop\n        /* \"#utility.yul\":2799:3080   */\n      pop\n      pop\n      jump\t// out\n        /* \"#utility.yul\":3086:3215   */\n    tag_151:\n        /* \"#utility.yul\":3120:3126   */\n      0x00\n        /* \"#utility.yul\":3147:3167   */\n      tag_229\n      tag_141\n      jump\t// in\n    tag_229:\n        /* \"#utility.yul\":3137:3167   */\n      swap1\n      pop\n        /* \"#utility.yul\":3176:3209   */\n      tag_230\n        /* \"#utility.yul\":3204:3208   */\n      dup3\n        /* \"#utility.yul\":3196:3202   */\n      dup3\n        /* \"#utility.yul\":3176:3209   */\n      tag_150\n      jump\t// in\n    tag_230:\n        /* \"#utility.yul\":3086:3215   */\n      swap2\n      swap1\n      pop\n      jump\t// out\n        /* \"#utility.yul\":3221:3529   */\n    tag_152:\n        /* \"#utility.yul\":3283:3287   */\n      0x00\n        /* \"#utility.yul\":3373:3391   */\n      0xffffffffffffffff\n        /* \"#utility.yul\":3365:3371   */\n      dup3\n        /* \"#utility.yul\":3362:3392   */\n      gt\n        /* \"#utility.yul\":3359:3415   */\n      iszero\n      tag_232\n      jumpi\n        /* \"#utility.yul\":3395:3413   */\n      tag_233\n      tag_149\n      jump\t// in\n    tag_233:\n        /* \"#utility.yul\":3359:3415   */\n    tag_232:\n        /* \"#utility.yul\":3433:3462   */\n      tag_234\n        /* \"#utility.yul\":3455:3461   */\n      dup3\n        /* \"#utility.yul\":3433:3462   */\n      tag_139\n      jump\t// in\n    tag_234:\n        /* \"#utility.yul\":3425:3462   */\n      swap1\n      pop\n        /* \"#utility.yul\":3517:3521   */\n      0x20\n        /* \"#utility.yul\":3511:3515   */\n      dup2\n        /* \"#utility.yul\":3507:3522   */\n      add\n        /* \"#utility.yul\":3499:3522   */\n      swap1\n      pop\n        /* \"#utility.yul\":3221:3529   */\n      swap2\n      swap1\n      pop\n      jump\t// out\n        /* \"#utility.yul\":3535:3681   */\n    tag_153:\n        /* \"#utility.yul\":3632:3638   */\n      dup3\n        /* \"#utility.yul\":3627:3630   */\n      dup2\n        /* \"#utility.yul\":3622:3625   */\n      dup4\n        /* \"#utility.yul\":3609:3639   */\n      calldatacopy\n        /* \"#utility.yul\":3673:3674   */\n      0x00\n        /* \"#utility.yul\":3664:3670   */\n      dup4\n        /* \"#utility.yul\":3659:3662   */\n      dup4\n        /* \"#utility.yul\":3655:3671   */\n      add\n        /* \"#utility.yul\":3648:3675   */\n      mstore\n        /* \"#utility.yul\":3535:3681   */\n      pop\n      pop\n      pop\n      jump\t// out\n        /* \"#utility.yul\":3687:4112   */\n    tag_154:\n        /* \"#utility.yul\":3765:3770   */\n      0x00\n        /* \"#utility.yul\":3790:3856   */\n      tag_237\n        /* \"#utility.yul\":3806:3855   */\n      tag_238\n        /* \"#utility.yul\":3848:3854   */\n      dup5\n        /* \"#utility.yul\":3806:3855   */\n      tag_152\n      jump\t// in\n    tag_238:\n        /* \"#utility.yul\":3790:3856   */\n      tag_151\n      jump\t// in\n    tag_237:\n        /* \"#utility.yul\":3781:3856   */\n      swap1\n      pop\n        /* \"#utility.yul\":3879:3885   */\n      dup3\n        /* \"#utility.yul\":3872:3877   */\n      dup2\n        /* \"#utility.yul\":3865:3886   */\n      mstore\n        /* \"#utility.yul\":3917:3921   */\n      0x20\n        /* \"#utility.yul\":3910:3915   */\n      dup2\n        /* \"#utility.yul\":3906:3922   */\n      add\n        /* \"#utility.yul\":3955:3958   */\n      dup5\n        /* \"#utility.yul\":3946:3952   */\n      dup5\n        /* \"#utility.yul\":3941:3944   */\n      dup5\n        /* \"#utility.yul\":3937:3953   */\n      add\n        /* \"#utility.yul\":3934:3959   */\n      gt\n        /* \"#utility.yul\":3931:4043   */\n      iszero\n      tag_239\n      jumpi\n        /* \"#utility.yul\":3962:4041   */\n      tag_240\n      tag_148\n      jump\t// in\n    tag_240:\n        /* \"#utility.yul\":3931:4043   */\n    tag_239:\n        /* \"#utility.yul\":4052:4106   */\n      tag_241\n        /* \"#utility.yul\":4099:4105   */\n      dup5\n        /* \"#utility.yul\":4094:4097   */\n      dup3\n        /* \"#utility.yul\":4089:4092   */\n      dup6\n        /* \"#utility.yul\":4052:4106   */\n      tag_153\n      jump\t// in\n    tag_241:\n        /* \"#utility.yul\":3771:4112   */\n      pop\n        /* \"#utility.yul\":3687:4112   */\n      swap4\n      swap3\n      pop\n      pop\n      pop\n      jump\t// out\n        /* \"#utility.yul\":4132:4472   */\n    tag_155:\n        /* \"#utility.yul\":4188:4193   */\n      0x00\n        /* \"#utility.yul\":4237:4240   */\n      dup3\n        /* \"#utility.yul\":4230:4234   */\n      0x1f\n        /* \"#utility.yul\":4222:4228   */\n      dup4\n        /* \"#utility.yul\":4218:4235   */\n      add\n        /* \"#utility.yul\":4214:4241   */\n      slt\n        /* \"#utility.yul\":4204:4326   */\n      tag_243\n      jumpi\n        /* \"#utility.yul\":4245:4324   */\n      tag_244\n      tag_147\n      jump\t// in\n    tag_244:\n        /* \"#utility.yul\":4204:4326   */\n    tag_243:\n        /* \"#utility.yul\":4362:4368   */\n      dup2\n        /* \"#utility.yul\":4349:4369   */\n      calldataload\n        /* \"#utility.yul\":4387:4466   */\n      tag_245\n        /* \"#utility.yul\":4462:4465   */\n      dup5\n        /* \"#utility.yul\":4454:4460   */\n      dup3\n        /* \"#utility.yul\":4447:4451   */\n      0x20\n        /* \"#utility.yul\":4439:4445   */\n      dup7\n        /* \"#utility.yul\":4435:4452   */\n      add\n        /* \"#utility.yul\":4387:4466   */\n      tag_154\n      jump\t// in\n    tag_245:\n        /* \"#utility.yul\":4378:4466   */\n      swap2\n      pop\n        /* \"#utility.yul\":4194:4472   */\n      pop\n        /* \"#utility.yul\":4132:4472   */\n      swap3\n      swap2\n      pop\n      pop\n      jump\t// out\n        /* \"#utility.yul\":4478:5603   */\n    tag_29:\n        /* \"#utility.yul\":4584:4590   */\n      0x00\n        /* \"#utility.yul\":4592:4598   */\n      dup1\n        /* \"#utility.yul\":4600:4606   */\n      0x00\n        /* \"#utility.yul\":4608:4614   */\n      dup1\n        /* \"#utility.yul\":4657:4660   */\n      0x80\n        /* \"#utility.yul\":4645:4654   */\n      dup6\n        /* \"#utility.yul\":4636:4643   */\n      dup8\n        /* \"#utility.yul\":4632:4655   */\n      sub\n        /* \"#utility.yul\":4628:4661   */\n      slt\n        /* \"#utility.yul\":4625:4745   */\n      iszero\n      tag_247\n      jumpi\n        /* \"#utility.yul\":4664:4743   */\n      tag_248\n      tag_142\n      jump\t// in\n    tag_248:\n        /* \"#utility.yul\":4625:4745   */\n    tag_247:\n        /* \"#utility.yul\":4812:4813   */\n      0x00\n        /* \"#utility.yul\":4801:4810   */\n      dup6\n        /* \"#utility.yul\":4797:4814   */\n      add\n        /* \"#utility.yul\":4784:4815   */\n      calldataload\n        /* \"#utility.yul\":4842:4860   */\n      0xffffffffffffffff\n        /* \"#utility.yul\":4834:4840   */\n      dup2\n        /* \"#utility.yul\":4831:4861   */\n      gt\n        /* \"#utility.yul\":4828:4945   */\n      iszero\n      tag_249\n      jumpi\n        /* \"#utility.yul\":4864:4943   */\n      tag_250\n      tag_143\n      jump\t// in\n    tag_250:\n        /* \"#utility.yul\":4828:4945   */\n    tag_249:\n        /* \"#utility.yul\":4969:5032   */\n      tag_251\n        /* \"#utility.yul\":5024:5031   */\n      dup8\n        /* \"#utility.yul\":5015:5021   */\n      dup3\n        /* \"#utility.yul\":5004:5013   */\n      dup9\n        /* \"#utility.yul\":5000:5022   */\n      add\n        /* \"#utility.yul\":4969:5032   */\n      tag_155\n      jump\t// in\n    tag_251:\n        /* \"#utility.yul\":4959:5032   */\n      swap5\n      pop\n        /* \"#utility.yul\":4755:5042   */\n      pop\n        /* \"#utility.yul\":5081:5083   */\n      0x20\n        /* \"#utility.yul\":5107:5160   */\n      tag_252\n        /* \"#utility.yul\":5152:5159   */\n      dup8\n        /* \"#utility.yul\":5143:5149   */\n      dup3\n        /* \"#utility.yul\":5132:5141   */\n      dup9\n        /* \"#utility.yul\":5128:5150   */\n      add\n        /* \"#utility.yul\":5107:5160   */\n      tag_146\n      jump\t// in\n    tag_252:\n        /* \"#utility.yul\":5097:5160   */\n      swap4\n      pop\n        /* \"#utility.yul\":5052:5170   */\n      pop\n        /* \"#utility.yul\":5209:5211   */\n      0x40\n        /* \"#utility.yul\":5235:5288   */\n      tag_253\n        /* \"#utility.yul\":5280:5287   */\n      dup8\n        /* \"#utility.yul\":5271:5277   */\n      dup3\n        /* \"#utility.yul\":5260:5269   */\n      dup9\n        /* \"#utility.yul\":5256:5278   */\n      add\n        /* \"#utility.yul\":5235:5288   */\n      tag_146\n      jump\t// in\n    tag_253:\n        /* \"#utility.yul\":5225:5288   */\n      swap3\n      pop\n        /* \"#utility.yul\":5180:5298   */\n      pop\n        /* \"#utility.yul\":5365:5367   */\n      0x60\n        /* \"#utility.yul\":5354:5363   */\n      dup6\n        /* \"#utility.yul\":5350:5368   */\n      add\n        /* \"#utility.yul\":5337:5369   */\n      calldataload\n        /* \"#utility.yul\":5396:5414   */\n      0xffffffffffffffff\n        /* \"#utility.yul\":5388:5394   */\n      dup2\n        /* \"#utility.yul\":5385:5415   */\n      gt\n        /* \"#utility.yul\":5382:5499   */\n      iszero\n      tag_254\n      jumpi\n        /* \"#utility.yul\":5418:5497   */\n      tag_255\n      tag_143\n      jump\t// in\n    tag_255:\n        /* \"#utility.yul\":5382:5499   */\n    tag_254:\n        /* \"#utility.yul\":5523:5586   */\n      tag_256\n        /* \"#utility.yul\":5578:5585   */\n      dup8\n        /* \"#utility.yul\":5569:5575   */\n      dup3\n        /* \"#utility.yul\":5558:5567   */\n      dup9\n        /* \"#utility.yul\":5554:5576   */\n      add\n        /* \"#utility.yul\":5523:5586   */\n      tag_155\n      jump\t// in\n    tag_256:\n        /* \"#utility.yul\":5513:5586   */\n      swap2\n      pop\n        /* \"#utility.yul\":5308:5596   */\n      pop\n        /* \"#utility.yul\":4478:5603   */\n      swap3\n      swap6\n      swap2\n      swap5\n      pop\n      swap3\n      pop\n      jump\t// out\n        /* \"#utility.yul\":5609:5727   */\n    tag_156:\n        /* \"#utility.yul\":5696:5720   */\n      tag_258\n        /* \"#utility.yul\":5714:5719   */\n      dup2\n        /* \"#utility.yul\":5696:5720   */\n      tag_144\n      jump\t// in\n    tag_258:\n        /* \"#utility.yul\":5691:5694   */\n      dup3\n        /* \"#utility.yul\":5684:5721   */\n      mstore\n        /* \"#utility.yul\":5609:5727   */\n      pop\n      pop\n      jump\t// out\n        /* \"#utility.yul\":5733:5955   */\n    tag_35:\n        /* \"#utility.yul\":5826:5830   */\n      0x00\n        /* \"#utility.yul\":5864:5866   */\n      0x20\n        /* \"#utility.yul\":5853:5862   */\n      dup3\n        /* \"#utility.yul\":5849:5867   */\n      add\n        /* \"#utility.yul\":5841:5867   */\n      swap1\n      pop\n        /* \"#utility.yul\":5877:5948   */\n      tag_260\n        /* \"#utility.yul\":5945:5946   */\n      0x00\n        /* \"#utility.yul\":5934:5943   */\n      dup4\n        /* \"#utility.yul\":5930:5947   */\n      add\n        /* \"#utility.yul\":5921:5927   */\n      dup5\n        /* \"#utility.yul\":5877:5948   */\n      tag_156\n      jump\t// in\n    tag_260:\n        /* \"#utility.yul\":5733:5955   */\n      swap3\n      swap2\n      pop\n      pop\n      jump\t// out\n        /* \"#utility.yul\":5961:6494   */\n    tag_45:\n        /* \"#utility.yul\":6130:6134   */\n      0x00\n        /* \"#utility.yul\":6168:6170   */\n      0x60\n        /* \"#utility.yul\":6157:6166   */\n      dup3\n        /* \"#utility.yul\":6153:6171   */\n      add\n        /* \"#utility.yul\":6145:6171   */\n      swap1\n      pop\n        /* \"#utility.yul\":6217:6226   */\n      dup2\n        /* \"#utility.yul\":6211:6215   */\n      dup2\n        /* \"#utility.yul\":6207:6227   */\n      sub\n        /* \"#utility.yul\":6203:6204   */\n      0x00\n        /* \"#utility.yul\":6192:6201   */\n      dup4\n        /* \"#utility.yul\":6188:6205   */\n      add\n        /* \"#utility.yul\":6181:6228   */\n      mstore\n        /* \"#utility.yul\":6245:6323   */\n      tag_262\n        /* \"#utility.yul\":6318:6322   */\n      dup2\n        /* \"#utility.yul\":6309:6315   */\n      dup7\n        /* \"#utility.yul\":6245:6323   */\n      tag_140\n      jump\t// in\n    tag_262:\n        /* \"#utility.yul\":6237:6323   */\n      swap1\n      pop\n        /* \"#utility.yul\":6333:6405   */\n      tag_263\n        /* \"#utility.yul\":6401:6403   */\n      0x20\n        /* \"#utility.yul\":6390:6399   */\n      dup4\n        /* \"#utility.yul\":6386:6404   */\n      add\n        /* \"#utility.yul\":6377:6383   */\n      dup6\n        /* \"#utility.yul\":6333:6405   */\n      tag_156\n      jump\t// in\n    tag_263:\n        /* \"#utility.yul\":6415:6487   */\n      tag_264\n        /* \"#utility.yul\":6483:6485   */\n      0x40\n        /* \"#utility.yul\":6472:6481   */\n      dup4\n        /* \"#utility.yul\":6468:6486   */\n      add\n        /* \"#utility.yul\":6459:6465   */\n      dup5\n        /* \"#utility.yul\":6415:6487   */\n      tag_156\n      jump\t// in\n    tag_264:\n        /* \"#utility.yul\":5961:6494   */\n      swap5\n      swap4\n      pop\n      pop\n      pop\n      pop\n      jump\t// out\n        /* \"#utility.yul\":6500:6626   */\n    tag_157:\n        /* \"#utility.yul\":6537:6544   */\n      0x00\n        /* \"#utility.yul\":6577:6619   */\n      0xffffffffffffffffffffffffffffffffffffffff\n        /* \"#utility.yul\":6570:6575   */\n      dup3\n        /* \"#utility.yul\":6566:6620   */\n      and\n        /* \"#utility.yul\":6555:6620   */\n      swap1\n      pop\n        /* \"#utility.yul\":6500:6626   */\n      swap2\n      swap1\n      pop\n      jump\t// out\n        /* \"#utility.yul\":6632:6728   */\n    tag_158:\n        /* \"#utility.yul\":6669:6676   */\n      0x00\n        /* \"#utility.yul\":6698:6722   */\n      tag_267\n        /* \"#utility.yul\":6716:6721   */\n      dup3\n        /* \"#utility.yul\":6698:6722   */\n      tag_157\n      jump\t// in\n    tag_267:\n        /* \"#utility.yul\":6687:6722   */\n      swap1\n      pop\n        /* \"#utility.yul\":6632:6728   */\n      swap2\n      swap1\n      pop\n      jump\t// out\n        /* \"#utility.yul\":6734:6856   */\n    tag_159:\n        /* \"#utility.yul\":6807:6831   */\n      tag_269\n        /* \"#utility.yul\":6825:6830   */\n      dup2\n        /* \"#utility.yul\":6807:6831   */\n      tag_158\n      jump\t// in\n    tag_269:\n        /* \"#utility.yul\":6800:6805   */\n      dup2\n        /* \"#utility.yul\":6797:6832   */\n      eq\n        /* \"#utility.yul\":6787:6850   */\n      tag_270\n      jumpi\n        /* \"#utility.yul\":6846:6847   */\n      0x00\n        /* \"#utility.yul\":6843:6844   */\n      dup1\n        /* \"#utility.yul\":6836:6848   */\n      revert\n        /* \"#utility.yul\":6787:6850   */\n    tag_270:\n        /* \"#utility.yul\":6734:6856   */\n      pop\n      jump\t// out\n        /* \"#utility.yul\":6862:7001   */\n    tag_160:\n        /* \"#utility.yul\":6908:6913   */\n      0x00\n        /* \"#utility.yul\":6946:6952   */\n      dup2\n        /* \"#utility.yul\":6933:6953   */\n      calldataload\n        /* \"#utility.yul\":6924:6953   */\n      swap1\n      pop\n        /* \"#utility.yul\":6962:6995   */\n      tag_272\n        /* \"#utility.yul\":6989:6994   */\n      dup2\n        /* \"#utility.yul\":6962:6995   */\n      tag_159\n      jump\t// in\n    tag_272:\n        /* \"#utility.yul\":6862:7001   */\n      swap3\n      swap2\n      pop\n      pop\n      jump\t// out\n        /* \"#utility.yul\":7007:7336   */\n    tag_53:\n        /* \"#utility.yul\":7066:7072   */\n      0x00\n        /* \"#utility.yul\":7115:7117   */\n      0x20\n        /* \"#utility.yul\":7103:7112   */\n      dup3\n        /* \"#utility.yul\":7094:7101   */\n      dup5\n        /* \"#utility.yul\":7090:7113   */\n      sub\n        /* \"#utility.yul\":7086:7118   */\n      slt\n        /* \"#utility.yul\":7083:7202   */\n      iszero\n      tag_274\n      jumpi\n        /* \"#utility.yul\":7121:7200   */\n      tag_275\n      tag_142\n      jump\t// in\n    tag_275:\n        /* \"#utility.yul\":7083:7202   */\n    tag_274:\n        /* \"#utility.yul\":7241:7242   */\n      0x00\n        /* \"#utility.yul\":7266:7319   */\n      tag_276\n        /* \"#utility.yul\":7311:7318   */\n      dup5\n        /* \"#utility.yul\":7302:7308   */\n      dup3\n        /* \"#utility.yul\":7291:7300   */\n      dup6\n        /* \"#utility.yul\":7287:7309   */\n      add\n        /* \"#utility.yul\":7266:7319   */\n      tag_160\n      jump\t// in\n    tag_276:\n        /* \"#utility.yul\":7256:7319   */\n      swap2\n      pop\n        /* \"#utility.yul\":7212:7329   */\n      pop\n        /* \"#utility.yul\":7007:7336   */\n      swap3\n      swap2\n      pop\n      pop\n      jump\t// out\n        /* \"#utility.yul\":7342:7460   */\n    tag_161:\n        /* \"#utility.yul\":7429:7453   */\n      tag_278\n        /* \"#utility.yul\":7447:7452   */\n      dup2\n        /* \"#utility.yul\":7429:7453   */\n      tag_158\n      jump\t// in\n    tag_278:\n        /* \"#utility.yul\":7424:7427   */\n      dup3\n        /* \"#utility.yul\":7417:7454   */\n      mstore\n        /* \"#utility.yul\":7342:7460   */\n      pop\n      pop\n      jump\t// out\n        /* \"#utility.yul\":7466:7688   */\n    tag_61:\n        /* \"#utility.yul\":7559:7563   */\n      0x00\n        /* \"#utility.yul\":7597:7599   */\n      0x20\n        /* \"#utility.yul\":7586:7595   */\n      dup3\n        /* \"#utility.yul\":7582:7600   */\n      add\n        /* \"#utility.yul\":7574:7600   */\n      swap1\n      pop\n        /* \"#utility.yul\":7610:7681   */\n      tag_280\n        /* \"#utility.yul\":7678:7679   */\n      0x00\n        /* \"#utility.yul\":7667:7676   */\n      dup4\n        /* \"#utility.yul\":7663:7680   */\n      add\n        /* \"#utility.yul\":7654:7660   */\n      dup5\n        /* \"#utility.yul\":7610:7681   */\n      tag_161\n      jump\t// in\n    tag_280:\n        /* \"#utility.yul\":7466:7688   */\n      swap3\n      swap2\n      pop\n      pop\n      jump\t// out\n        /* \"#utility.yul\":7694:7874   */\n    tag_162:\n        /* \"#utility.yul\":7742:7819   */\n      0x4e487b7100000000000000000000000000000000000000000000000000000000\n        /* \"#utility.yul\":7739:7740   */\n      0x00\n        /* \"#utility.yul\":7732:7820   */\n      mstore\n        /* \"#utility.yul\":7839:7843   */\n      0x22\n        /* \"#utility.yul\":7836:7837   */\n      0x04\n        /* \"#utility.yul\":7829:7844   */\n      mstore\n        /* \"#utility.yul\":7863:7867   */\n      0x24\n        /* \"#utility.yul\":7860:7861   */\n      0x00\n        /* \"#utility.yul\":7853:7868   */\n      revert\n        /* \"#utility.yul\":7880:8200   */\n    tag_68:\n        /* \"#utility.yul\":7924:7930   */\n      0x00\n        /* \"#utility.yul\":7961:7962   */\n      0x02\n        /* \"#utility.yul\":7955:7959   */\n      dup3\n        /* \"#utility.yul\":7951:7963   */\n      div\n        /* \"#utility.yul\":7941:7963   */\n      swap1\n      pop\n        /* \"#utility.yul\":8008:8009   */\n      0x01\n        /* \"#utility.yul\":8002:8006   */\n      dup3\n        /* \"#utility.yul\":7998:8010   */\n      and\n        /* \"#utility.yul\":8029:8047   */\n      dup1\n        /* \"#utility.yul\":8019:8100   */\n      tag_283\n      jumpi\n        /* \"#utility.yul\":8085:8089   */\n      0x7f\n        /* \"#utility.yul\":8077:8083   */\n      dup3\n        /* \"#utility.yul\":8073:8090   */\n      and\n        /* \"#utility.yul\":8063:8090   */\n      swap2\n      pop\n        /* \"#utility.yul\":8019:8100   */\n    tag_283:\n        /* \"#utility.yul\":8147:8149   */\n      0x20\n        /* \"#utility.yul\":8139:8145   */\n      dup3\n        /* \"#utility.yul\":8136:8150   */\n      lt\n        /* \"#utility.yul\":8116:8134   */\n      dup2\n        /* \"#utility.yul\":8113:8151   */\n      sub\n        /* \"#utility.yul\":8110:8194   */\n      tag_284\n      jumpi\n        /* \"#utility.yul\":8166:8184   */\n      tag_285\n      tag_162\n      jump\t// in\n    tag_285:\n        /* \"#utility.yul\":8110:8194   */\n    tag_284:\n        /* \"#utility.yul\":7931:8200   */\n      pop\n        /* \"#utility.yul\":7880:8200   */\n      swap2\n      swap1\n      pop\n      jump\t// out\n        /* \"#utility.yul\":8206:8387   */\n    tag_163:\n        /* \"#utility.yul\":8346:8379   */\n      0x596f752063616e206f6e6c79206d696c6b20796f7572206f776e20636f772e00\n        /* \"#utility.yul\":8342:8343   */\n      0x00\n        /* \"#utility.yul\":8334:8340   */\n      dup3\n        /* \"#utility.yul\":8330:8344   */\n      add\n        /* \"#utility.yul\":8323:8380   */\n      mstore\n        /* \"#utility.yul\":8206:8387   */\n      pop\n      jump\t// out\n        /* \"#utility.yul\":8393:8759   */\n    tag_164:\n        /* \"#utility.yul\":8535:8538   */\n      0x00\n        /* \"#utility.yul\":8556:8623   */\n      tag_288\n        /* \"#utility.yul\":8620:8622   */\n      0x1f\n        /* \"#utility.yul\":8615:8618   */\n      dup4\n        /* \"#utility.yul\":8556:8623   */\n      tag_137\n      jump\t// in\n    tag_288:\n        /* \"#utility.yul\":8549:8623   */\n      swap2\n      pop\n        /* \"#utility.yul\":8632:8725   */\n      tag_289\n        /* \"#utility.yul\":8721:8724   */\n      dup3\n        /* \"#utility.yul\":8632:8725   */\n      tag_163\n      jump\t// in\n    tag_289:\n        /* \"#utility.yul\":8750:8752   */\n      0x20\n        /* \"#utility.yul\":8745:8748   */\n      dup3\n        /* \"#utility.yul\":8741:8753   */\n      add\n        /* \"#utility.yul\":8734:8753   */\n      swap1\n      pop\n        /* \"#utility.yul\":8393:8759   */\n      swap2\n      swap1\n      pop\n      jump\t// out\n        /* \"#utility.yul\":8765:9184   */\n    tag_76:\n        /* \"#utility.yul\":8931:8935   */\n      0x00\n        /* \"#utility.yul\":8969:8971   */\n      0x20\n        /* \"#utility.yul\":8958:8967   */\n      dup3\n        /* \"#utility.yul\":8954:8972   */\n      add\n        /* \"#utility.yul\":8946:8972   */\n      swap1\n      pop\n        /* \"#utility.yul\":9018:9027   */\n      dup2\n        /* \"#utility.yul\":9012:9016   */\n      dup2\n        /* \"#utility.yul\":9008:9028   */\n      sub\n        /* \"#utility.yul\":9004:9005   */\n      0x00\n        /* \"#utility.yul\":8993:9002   */\n      dup4\n        /* \"#utility.yul\":8989:9006   */\n      add\n        /* \"#utility.yul\":8982:9029   */\n      mstore\n        /* \"#utility.yul\":9046:9177   */\n      tag_291\n        /* \"#utility.yul\":9172:9176   */\n      dup2\n        /* \"#utility.yul\":9046:9177   */\n      tag_164\n      jump\t// in\n    tag_291:\n        /* \"#utility.yul\":9038:9177   */\n      swap1\n      pop\n        /* \"#utility.yul\":8765:9184   */\n      swap2\n      swap1\n      pop\n      jump\t// out\n        /* \"#utility.yul\":9190:9370   */\n    tag_79:\n        /* \"#utility.yul\":9238:9315   */\n      0x4e487b7100000000000000000000000000000000000000000000000000000000\n        /* \"#utility.yul\":9235:9236   */\n      0x00\n        /* \"#utility.yul\":9228:9316   */\n      mstore\n        /* \"#utility.yul\":9335:9339   */\n      0x32\n        /* \"#utility.yul\":9332:9333   */\n      0x04\n        /* \"#utility.yul\":9325:9340   */\n      mstore\n        /* \"#utility.yul\":9359:9363   */\n      0x24\n        /* \"#utility.yul\":9356:9357   */\n      0x00\n        /* \"#utility.yul\":9349:9364   */\n      revert\n        /* \"#utility.yul\":9376:9556   */\n    tag_165:\n        /* \"#utility.yul\":9516:9548   */\n      0x5468697320636f7720697320746f6f20796f756e6720746f206d696c6b2e0000\n        /* \"#utility.yul\":9512:9513   */\n      0x00\n        /* \"#utility.yul\":9504:9510   */\n      dup3\n        /* \"#utility.yul\":9500:9514   */\n      add\n        /* \"#utility.yul\":9493:9549   */\n      mstore\n        /* \"#utility.yul\":9376:9556   */\n      pop\n      jump\t// out\n        /* \"#utility.yul\":9562:9928   */\n    tag_166:\n        /* \"#utility.yul\":9704:9707   */\n      0x00\n        /* \"#utility.yul\":9725:9792   */\n      tag_295\n        /* \"#utility.yul\":9789:9791   */\n      0x1e\n        /* \"#utility.yul\":9784:9787   */\n      dup4\n        /* \"#utility.yul\":9725:9792   */\n      tag_137\n      jump\t// in\n    tag_295:\n        /* \"#utility.yul\":9718:9792   */\n      swap2\n      pop\n        /* \"#utility.yul\":9801:9894   */\n      tag_296\n        /* \"#utility.yul\":9890:9893   */\n      dup3\n        /* \"#utility.yul\":9801:9894   */\n      tag_165\n      jump\t// in\n    tag_296:\n        /* \"#utility.yul\":9919:9921   */\n      0x20\n        /* \"#utility.yul\":9914:9917   */\n      dup3\n        /* \"#utility.yul\":9910:9922   */\n      add\n        /* \"#utility.yul\":9903:9922   */\n      swap1\n      pop\n        /* \"#utility.yul\":9562:9928   */\n      swap2\n      swap1\n      pop\n      jump\t// out\n        /* \"#utility.yul\":9934:10353   */\n    tag_83:\n        /* \"#utility.yul\":10100:10104   */\n      0x00\n        /* \"#utility.yul\":10138:10140   */\n      0x20\n        /* \"#utility.yul\":10127:10136   */\n      dup3\n        /* \"#utility.yul\":10123:10141   */\n      add\n        /* \"#utility.yul\":10115:10141   */\n      swap1\n      pop\n        /* \"#utility.yul\":10187:10196   */\n      dup2\n        /* \"#utility.yul\":10181:10185   */\n      dup2\n        /* \"#utility.yul\":10177:10197   */\n      sub\n        /* \"#utility.yul\":10173:10174   */\n      0x00\n        /* \"#utility.yul\":10162:10171   */\n      dup4\n        /* \"#utility.yul\":10158:10175   */\n      add\n        /* \"#utility.yul\":10151:10198   */\n      mstore\n        /* \"#utility.yul\":10215:10346   */\n      tag_298\n        /* \"#utility.yul\":10341:10345   */\n      dup2\n        /* \"#utility.yul\":10215:10346   */\n      tag_166\n      jump\t// in\n    tag_298:\n        /* \"#utility.yul\":10207:10346   */\n      swap1\n      pop\n        /* \"#utility.yul\":9934:10353   */\n      swap2\n      swap1\n      pop\n      jump\t// out\n        /* \"#utility.yul\":10359:10530   */\n    tag_167:\n        /* \"#utility.yul\":10499:10522   */\n      0x5468697320636f7720686173206e6f206d696c6b2e0000000000000000000000\n        /* \"#utility.yul\":10495:10496   */\n      0x00\n        /* \"#utility.yul\":10487:10493   */\n      dup3\n        /* \"#utility.yul\":10483:10497   */\n      add\n        /* \"#utility.yul\":10476:10523   */\n      mstore\n        /* \"#utility.yul\":10359:10530   */\n      pop\n      jump\t// out\n        /* \"#utility.yul\":10536:10902   */\n    tag_168:\n        /* \"#utility.yul\":10678:10681   */\n      0x00\n        /* \"#utility.yul\":10699:10766   */\n      tag_301\n        /* \"#utility.yul\":10763:10765   */\n      0x15\n        /* \"#utility.yul\":10758:10761   */\n      dup4\n        /* \"#utility.yul\":10699:10766   */\n      tag_137\n      jump\t// in\n    tag_301:\n        /* \"#utility.yul\":10692:10766   */\n      swap2\n      pop\n        /* \"#utility.yul\":10775:10868   */\n      tag_302\n        /* \"#utility.yul\":10864:10867   */\n      dup3\n        /* \"#utility.yul\":10775:10868   */\n      tag_167\n      jump\t// in\n    tag_302:\n        /* \"#utility.yul\":10893:10895   */\n      0x20\n        /* \"#utility.yul\":10888:10891   */\n      dup3\n        /* \"#utility.yul\":10884:10896   */\n      add\n        /* \"#utility.yul\":10877:10896   */\n      swap1\n      pop\n        /* \"#utility.yul\":10536:10902   */\n      swap2\n      swap1\n      pop\n      jump\t// out\n        /* \"#utility.yul\":10908:11327   */\n    tag_89:\n        /* \"#utility.yul\":11074:11078   */\n      0x00\n        /* \"#utility.yul\":11112:11114   */\n      0x20\n        /* \"#utility.yul\":11101:11110   */\n      dup3\n        /* \"#utility.yul\":11097:11115   */\n      add\n        /* \"#utility.yul\":11089:11115   */\n      swap1\n      pop\n        /* \"#utility.yul\":11161:11170   */\n      dup2\n        /* \"#utility.yul\":11155:11159   */\n      dup2\n        /* \"#utility.yul\":11151:11171   */\n      sub\n        /* \"#utility.yul\":11147:11148   */\n      0x00\n        /* \"#utility.yul\":11136:11145   */\n      dup4\n        /* \"#utility.yul\":11132:11149   */\n      add\n        /* \"#utility.yul\":11125:11172   */\n      mstore\n        /* \"#utility.yul\":11189:11320   */\n      tag_304\n        /* \"#utility.yul\":11315:11319   */\n      dup2\n        /* \"#utility.yul\":11189:11320   */\n      tag_168\n      jump\t// in\n    tag_304:\n        /* \"#utility.yul\":11181:11320   */\n      swap1\n      pop\n        /* \"#utility.yul\":10908:11327   */\n      swap2\n      swap1\n      pop\n      jump\t// out\n        /* \"#utility.yul\":11333:11568   */\n    tag_169:\n        /* \"#utility.yul\":11473:11507   */\n      0x506c656173652073656e6420302e3120657468657220746f20676574206d696c\n        /* \"#utility.yul\":11469:11470   */\n      0x00\n        /* \"#utility.yul\":11461:11467   */\n      dup3\n        /* \"#utility.yul\":11457:11471   */\n      add\n        /* \"#utility.yul\":11450:11508   */\n      mstore\n        /* \"#utility.yul\":11542:11560   */\n      0x6b2066726f6d207468697320636f772e00000000000000000000000000000000\n        /* \"#utility.yul\":11537:11539   */\n      0x20\n        /* \"#utility.yul\":11529:11535   */\n      dup3\n        /* \"#utility.yul\":11525:11540   */\n      add\n        /* \"#utility.yul\":11518:11561   */\n      mstore\n        /* \"#utility.yul\":11333:11568   */\n      pop\n      jump\t// out\n        /* \"#utility.yul\":11574:11940   */\n    tag_170:\n        /* \"#utility.yul\":11716:11719   */\n      0x00\n        /* \"#utility.yul\":11737:11804   */\n      tag_307\n        /* \"#utility.yul\":11801:11803   */\n      0x30\n        /* \"#utility.yul\":11796:11799   */\n      dup4\n        /* \"#utility.yul\":11737:11804   */\n      tag_137\n      jump\t// in\n    tag_307:\n        /* \"#utility.yul\":11730:11804   */\n      swap2\n      pop\n        /* \"#utility.yul\":11813:11906   */\n      tag_308\n        /* \"#utility.yul\":11902:11905   */\n      dup3\n        /* \"#utility.yul\":11813:11906   */\n      tag_169\n      jump\t// in\n    tag_308:\n        /* \"#utility.yul\":11931:11933   */\n      0x40\n        /* \"#utility.yul\":11926:11929   */\n      dup3\n        /* \"#utility.yul\":11922:11934   */\n      add\n        /* \"#utility.yul\":11915:11934   */\n      swap1\n      pop\n        /* \"#utility.yul\":11574:11940   */\n      swap2\n      swap1\n      pop\n      jump\t// out\n        /* \"#utility.yul\":11946:12365   */\n    tag_92:\n        /* \"#utility.yul\":12112:12116   */\n      0x00\n        /* \"#utility.yul\":12150:12152   */\n      0x20\n        /* \"#utility.yul\":12139:12148   */\n      dup3\n        /* \"#utility.yul\":12135:12153   */\n      add\n        /* \"#utility.yul\":12127:12153   */\n      swap1\n      pop\n        /* \"#utility.yul\":12199:12208   */\n      dup2\n        /* \"#utility.yul\":12193:12197   */\n      dup2\n        /* \"#utility.yul\":12189:12209   */\n      sub\n        /* \"#utility.yul\":12185:12186   */\n      0x00\n        /* \"#utility.yul\":12174:12183   */\n      dup4\n        /* \"#utility.yul\":12170:12187   */\n      add\n        /* \"#utility.yul\":12163:12210   */\n      mstore\n        /* \"#utility.yul\":12227:12358   */\n      tag_310\n        /* \"#utility.yul\":12353:12357   */\n      dup2\n        /* \"#utility.yul\":12227:12358   */\n      tag_170\n      jump\t// in\n    tag_310:\n        /* \"#utility.yul\":12219:12358   */\n      swap1\n      pop\n        /* \"#utility.yul\":11946:12365   */\n      swap2\n      swap1\n      pop\n      jump\t// out\n        /* \"#utility.yul\":12371:12551   */\n    tag_171:\n        /* \"#utility.yul\":12419:12496   */\n      0x4e487b7100000000000000000000000000000000000000000000000000000000\n        /* \"#utility.yul\":12416:12417   */\n      0x00\n        /* \"#utility.yul\":12409:12497   */\n      mstore\n        /* \"#utility.yul\":12516:12520   */\n      0x11\n        /* \"#utility.yul\":12513:12514   */\n      0x04\n        /* \"#utility.yul\":12506:12521   */\n      mstore\n        /* \"#utility.yul\":12540:12544   */\n      0x24\n        /* \"#utility.yul\":12537:12538   */\n      0x00\n        /* \"#utility.yul\":12530:12545   */\n      revert\n        /* \"#utility.yul\":12557:12728   */\n    tag_99:\n        /* \"#utility.yul\":12596:12599   */\n      0x00\n        /* \"#utility.yul\":12619:12643   */\n      tag_313\n        /* \"#utility.yul\":12637:12642   */\n      dup3\n        /* \"#utility.yul\":12619:12643   */\n      tag_144\n      jump\t// in\n    tag_313:\n        /* \"#utility.yul\":12610:12643   */\n      swap2\n      pop\n        /* \"#utility.yul\":12665:12669   */\n      0x00\n        /* \"#utility.yul\":12658:12663   */\n      dup3\n        /* \"#utility.yul\":12655:12670   */\n      sub\n        /* \"#utility.yul\":12652:12693   */\n      tag_314\n      jumpi\n        /* \"#utility.yul\":12673:12691   */\n      tag_315\n      tag_171\n      jump\t// in\n    tag_315:\n        /* \"#utility.yul\":12652:12693   */\n    tag_314:\n        /* \"#utility.yul\":12720:12721   */\n      0x01\n        /* \"#utility.yul\":12713:12718   */\n      dup3\n        /* \"#utility.yul\":12709:12722   */\n      sub\n        /* \"#utility.yul\":12702:12722   */\n      swap1\n      pop\n        /* \"#utility.yul\":12557:12728   */\n      swap2\n      swap1\n      pop\n      jump\t// out\n        /* \"#utility.yul\":12734:12968   */\n    tag_172:\n        /* \"#utility.yul\":12874:12908   */\n      0x596f75206e65656420746f2073656e64206174206c6561737420312065746865\n        /* \"#utility.yul\":12870:12871   */\n      0x00\n        /* \"#utility.yul\":12862:12868   */\n      dup3\n        /* \"#utility.yul\":12858:12872   */\n      add\n        /* \"#utility.yul\":12851:12909   */\n      mstore\n        /* \"#utility.yul\":12943:12960   */\n      0x7220746f20627579206120636f772e0000000000000000000000000000000000\n        /* \"#utility.yul\":12938:12940   */\n      0x20\n        /* \"#utility.yul\":12930:12936   */\n      dup3\n        /* \"#utility.yul\":12926:12941   */\n      add\n        /* \"#utility.yul\":12919:12961   */\n      mstore\n        /* \"#utility.yul\":12734:12968   */\n      pop\n      jump\t// out\n        /* \"#utility.yul\":12974:13340   */\n    tag_173:\n        /* \"#utility.yul\":13116:13119   */\n      0x00\n        /* \"#utility.yul\":13137:13204   */\n      tag_318\n        /* \"#utility.yul\":13201:13203   */\n      0x2f\n        /* \"#utility.yul\":13196:13199   */\n      dup4\n        /* \"#utility.yul\":13137:13204   */\n      tag_137\n      jump\t// in\n    tag_318:\n        /* \"#utility.yul\":13130:13204   */\n      swap2\n      pop\n        /* \"#utility.yul\":13213:13306   */\n      tag_319\n        /* \"#utility.yul\":13302:13305   */\n      dup3\n        /* \"#utility.yul\":13213:13306   */\n      tag_172\n      jump\t// in\n    tag_319:\n        /* \"#utility.yul\":13331:13333   */\n      0x40\n        /* \"#utility.yul\":13326:13329   */\n      dup3\n        /* \"#utility.yul\":13322:13334   */\n      add\n        /* \"#utility.yul\":13315:13334   */\n      swap1\n      pop\n        /* \"#utility.yul\":12974:13340   */\n      swap2\n      swap1\n      pop\n      jump\t// out\n        /* \"#utility.yul\":13346:13765   */\n    tag_108:\n        /* \"#utility.yul\":13512:13516   */\n      0x00\n        /* \"#utility.yul\":13550:13552   */\n      0x20\n        /* \"#utility.yul\":13539:13548   */\n      dup3\n        /* \"#utility.yul\":13535:13553   */\n      add\n        /* \"#utility.yul\":13527:13553   */\n      swap1\n      pop\n        /* \"#utility.yul\":13599:13608   */\n      dup2\n        /* \"#utility.yul\":13593:13597   */\n      dup2\n        /* \"#utility.yul\":13589:13609   */\n      sub\n        /* \"#utility.yul\":13585:13586   */\n      0x00\n        /* \"#utility.yul\":13574:13583   */\n      dup4\n        /* \"#utility.yul\":13570:13587   */\n      add\n        /* \"#utility.yul\":13563:13610   */\n      mstore\n        /* \"#utility.yul\":13627:13758   */\n      tag_321\n        /* \"#utility.yul\":13753:13757   */\n      dup2\n        /* \"#utility.yul\":13627:13758   */\n      tag_173\n      jump\t// in\n    tag_321:\n        /* \"#utility.yul\":13619:13758   */\n      swap1\n      pop\n        /* \"#utility.yul\":13346:13765   */\n      swap2\n      swap1\n      pop\n      jump\t// out\n        /* \"#utility.yul\":13771:13952   */\n    tag_174:\n        /* \"#utility.yul\":13911:13944   */\n      0x596f752063616e206f6e6c79206665656420796f7572206f776e20636f772e00\n        /* \"#utility.yul\":13907:13908   */\n      0x00\n        /* \"#utility.yul\":13899:13905   */\n      dup3\n        /* \"#utility.yul\":13895:13909   */\n      add\n        /* \"#utility.yul\":13888:13945   */\n      mstore\n        /* \"#utility.yul\":13771:13952   */\n      pop\n      jump\t// out\n        /* \"#utility.yul\":13958:14324   */\n    tag_175:\n        /* \"#utility.yul\":14100:14103   */\n      0x00\n        /* \"#utility.yul\":14121:14188   */\n      tag_324\n        /* \"#utility.yul\":14185:14187   */\n      0x1f\n        /* \"#utility.yul\":14180:14183   */\n      dup4\n        /* \"#utility.yul\":14121:14188   */\n      tag_137\n      jump\t// in\n    tag_324:\n        /* \"#utility.yul\":14114:14188   */\n      swap2\n      pop\n        /* \"#utility.yul\":14197:14290   */\n      tag_325\n        /* \"#utility.yul\":14286:14289   */\n      dup3\n        /* \"#utility.yul\":14197:14290   */\n      tag_174\n      jump\t// in\n    tag_325:\n        /* \"#utility.yul\":14315:14317   */\n      0x20\n        /* \"#utility.yul\":14310:14313   */\n      dup3\n        /* \"#utility.yul\":14306:14318   */\n      add\n        /* \"#utility.yul\":14299:14318   */\n      swap1\n      pop\n        /* \"#utility.yul\":13958:14324   */\n      swap2\n      swap1\n      pop\n      jump\t// out\n        /* \"#utility.yul\":14330:14749   */\n    tag_124:\n        /* \"#utility.yul\":14496:14500   */\n      0x00\n        /* \"#utility.yul\":14534:14536   */\n      0x20\n        /* \"#utility.yul\":14523:14532   */\n      dup3\n        /* \"#utility.yul\":14519:14537   */\n      add\n        /* \"#utility.yul\":14511:14537   */\n      swap1\n      pop\n        /* \"#utility.yul\":14583:14592   */\n      dup2\n        /* \"#utility.yul\":14577:14581   */\n      dup2\n        /* \"#utility.yul\":14573:14593   */\n      sub\n        /* \"#utility.yul\":14569:14570   */\n      0x00\n        /* \"#utility.yul\":14558:14567   */\n      dup4\n        /* \"#utility.yul\":14554:14571   */\n      add\n        /* \"#utility.yul\":14547:14594   */\n      mstore\n        /* \"#utility.yul\":14611:14742   */\n      tag_327\n        /* \"#utility.yul\":14737:14741   */\n      dup2\n        /* \"#utility.yul\":14611:14742   */\n      tag_175\n      jump\t// in\n    tag_327:\n        /* \"#utility.yul\":14603:14742   */\n      swap1\n      pop\n        /* \"#utility.yul\":14330:14749   */\n      swap2\n      swap1\n      pop\n      jump\t// out\n        /* \"#utility.yul\":14755:14933   */\n    tag_176:\n        /* \"#utility.yul\":14895:14925   */\n      0x5468697320636f7720697320746f6f206f6c6420746f20666565642e00000000\n        /* \"#utility.yul\":14891:14892   */\n      0x00\n        /* \"#utility.yul\":14883:14889   */\n      dup3\n        /* \"#utility.yul\":14879:14893   */\n      add\n        /* \"#utility.yul\":14872:14926   */\n      mstore\n        /* \"#utility.yul\":14755:14933   */\n      pop\n      jump\t// out\n        /* \"#utility.yul\":14939:15305   */\n    tag_177:\n        /* \"#utility.yul\":15081:15084   */\n      0x00\n        /* \"#utility.yul\":15102:15169   */\n      tag_330\n        /* \"#utility.yul\":15166:15168   */\n      0x1c\n        /* \"#utility.yul\":15161:15164   */\n      dup4\n        /* \"#utility.yul\":15102:15169   */\n      tag_137\n      jump\t// in\n    tag_330:\n        /* \"#utility.yul\":15095:15169   */\n      swap2\n      pop\n        /* \"#utility.yul\":15178:15271   */\n      tag_331\n        /* \"#utility.yul\":15267:15270   */\n      dup3\n        /* \"#utility.yul\":15178:15271   */\n      tag_176\n      jump\t// in\n    tag_331:\n        /* \"#utility.yul\":15296:15298   */\n      0x20\n        /* \"#utility.yul\":15291:15294   */\n      dup3\n        /* \"#utility.yul\":15287:15299   */\n      add\n        /* \"#utility.yul\":15280:15299   */\n      swap1\n      pop\n        /* \"#utility.yul\":14939:15305   */\n      swap2\n      swap1\n      pop\n      jump\t// out\n        /* \"#utility.yul\":15311:15730   */\n    tag_130:\n        /* \"#utility.yul\":15477:15481   */\n      0x00\n        /* \"#utility.yul\":15515:15517   */\n      0x20\n        /* \"#utility.yul\":15504:15513   */\n      dup3\n        /* \"#utility.yul\":15500:15518   */\n      add\n        /* \"#utility.yul\":15492:15518   */\n      swap1\n      pop\n        /* \"#utility.yul\":15564:15573   */\n      dup2\n        /* \"#utility.yul\":15558:15562   */\n      dup2\n        /* \"#utility.yul\":15554:15574   */\n      sub\n        /* \"#utility.yul\":15550:15551   */\n      0x00\n        /* \"#utility.yul\":15539:15548   */\n      dup4\n        /* \"#utility.yul\":15535:15552   */\n      add\n        /* \"#utility.yul\":15528:15575   */\n      mstore\n        /* \"#utility.yul\":15592:15723   */\n      tag_333\n        /* \"#utility.yul\":15718:15722   */\n      dup2\n        /* \"#utility.yul\":15592:15723   */\n      tag_177\n      jump\t// in\n    tag_333:\n        /* \"#utility.yul\":15584:15723   */\n      swap1\n      pop\n        /* \"#utility.yul\":15311:15730   */\n      swap2\n      swap1\n      pop\n      jump\t// out\n        /* \"#utility.yul\":15736:15877   */\n    tag_178:\n        /* \"#utility.yul\":15785:15789   */\n      0x00\n        /* \"#utility.yul\":15808:15811   */\n      dup2\n        /* \"#utility.yul\":15800:15811   */\n      swap1\n      pop\n        /* \"#utility.yul\":15831:15834   */\n      dup2\n        /* \"#utility.yul\":15828:15829   */\n      0x00\n        /* \"#utility.yul\":15821:15835   */\n      mstore\n        /* \"#utility.yul\":15865:15869   */\n      0x20\n        /* \"#utility.yul\":15862:15863   */\n      0x00\n        /* \"#utility.yul\":15852:15870   */\n      keccak256\n        /* \"#utility.yul\":15844:15870   */\n      swap1\n      pop\n        /* \"#utility.yul\":15736:15877   */\n      swap2\n      swap1\n      pop\n      jump\t// out\n        /* \"#utility.yul\":15883:15976   */\n    tag_179:\n        /* \"#utility.yul\":15920:15926   */\n      0x00\n        /* \"#utility.yul\":15967:15969   */\n      0x20\n        /* \"#utility.yul\":15962:15964   */\n      0x1f\n        /* \"#utility.yul\":15955:15960   */\n      dup4\n        /* \"#utility.yul\":15951:15965   */\n      add\n        /* \"#utility.yul\":15947:15970   */\n      div\n        /* \"#utility.yul\":15937:15970   */\n      swap1\n      pop\n        /* \"#utility.yul\":15883:15976   */\n      swap2\n      swap1\n      pop\n      jump\t// out\n        /* \"#utility.yul\":15982:16089   */\n    tag_180:\n        /* \"#utility.yul\":16026:16034   */\n      0x00\n        /* \"#utility.yul\":16076:16081   */\n      dup3\n        /* \"#utility.yul\":16070:16074   */\n      dup3\n        /* \"#utility.yul\":16066:16082   */\n      shl\n        /* \"#utility.yul\":16045:16082   */\n      swap1\n      pop\n        /* \"#utility.yul\":15982:16089   */\n      swap3\n      swap2\n      pop\n      pop\n      jump\t// out\n        /* \"#utility.yul\":16095:16488   */\n    tag_181:\n        /* \"#utility.yul\":16164:16170   */\n      0x00\n        /* \"#utility.yul\":16214:16215   */\n      0x08\n        /* \"#utility.yul\":16202:16212   */\n      dup4\n        /* \"#utility.yul\":16198:16216   */\n      mul\n        /* \"#utility.yul\":16237:16334   */\n      tag_338\n        /* \"#utility.yul\":16267:16333   */\n      0xffffffffffffffffffffffffffffffffffffffffffffffffffffffffffffffff\n        /* \"#utility.yul\":16256:16265   */\n      dup3\n        /* \"#utility.yul\":16237:16334   */\n      tag_180\n      jump\t// in\n    tag_338:\n        /* \"#utility.yul\":16355:16394   */\n      tag_339\n        /* \"#utility.yul\":16385:16393   */\n      dup7\n        /* \"#utility.yul\":16374:16383   */\n      dup4\n        /* \"#utility.yul\":16355:16394   */\n      tag_180\n      jump\t// in\n    tag_339:\n        /* \"#utility.yul\":16343:16394   */\n      swap6\n      pop\n        /* \"#utility.yul\":16427:16431   */\n      dup1\n        /* \"#utility.yul\":16423:16432   */\n      not\n        /* \"#utility.yul\":16416:16421   */\n      dup5\n        /* \"#utility.yul\":16412:16433   */\n      and\n        /* \"#utility.yul\":16403:16433   */\n      swap4\n      pop\n        /* \"#utility.yul\":16476:16480   */\n      dup1\n        /* \"#utility.yul\":16466:16474   */\n      dup7\n        /* \"#utility.yul\":16462:16481   */\n      and\n        /* \"#utility.yul\":16455:16460   */\n      dup5\n        /* \"#utility.yul\":16452:16482   */\n      or\n        /* \"#utility.yul\":16442:16482   */\n      swap3\n      pop\n        /* \"#utility.yul\":16171:16488   */\n      pop\n      pop\n        /* \"#utility.yul\":16095:16488   */\n      swap4\n      swap3\n      pop\n      pop\n      pop\n      jump\t// out\n        /* \"#utility.yul\":16494:16554   */\n    tag_182:\n        /* \"#utility.yul\":16522:16525   */\n      0x00\n        /* \"#utility.yul\":16543:16548   */\n      dup2\n        /* \"#utility.yul\":16536:16548   */\n      swap1\n      pop\n        /* \"#utility.yul\":16494:16554   */\n      swap2\n      swap1\n      pop\n      jump\t// out\n        /* \"#utility.yul\":16560:16702   */\n    tag_183:\n        /* \"#utility.yul\":16610:16619   */\n      0x00\n        /* \"#utility.yul\":16643:16696   */\n      tag_342\n        /* \"#utility.yul\":16661:16695   */\n      tag_343\n        /* \"#utility.yul\":16670:16694   */\n      tag_344\n        /* \"#utility.yul\":16688:16693   */\n      dup5\n        /* \"#utility.yul\":16670:16694   */\n      tag_144\n      jump\t// in\n    tag_344:\n        /* \"#utility.yul\":16661:16695   */\n      tag_182\n      jump\t// in\n    tag_343:\n        /* \"#utility.yul\":16643:16696   */\n      tag_144\n      jump\t// in\n    tag_342:\n        /* \"#utility.yul\":16630:16696   */\n      swap1\n      pop\n        /* \"#utility.yul\":16560:16702   */\n      swap2\n      swap1\n      pop\n      jump\t// out\n        /* \"#utility.yul\":16708:16783   */\n    tag_184:\n        /* \"#utility.yul\":16751:16754   */\n      0x00\n        /* \"#utility.yul\":16772:16777   */\n      dup2\n        /* \"#utility.yul\":16765:16777   */\n      swap1\n      pop\n        /* \"#utility.yul\":16708:16783   */\n      swap2\n      swap1\n      pop\n      jump\t// out\n        /* \"#utility.yul\":16789:17058   */\n    tag_185:\n        /* \"#utility.yul\":16899:16938   */\n      tag_347\n        /* \"#utility.yul\":16930:16937   */\n      dup4\n        /* \"#utility.yul\":16899:16938   */\n      tag_183\n      jump\t// in\n    tag_347:\n        /* \"#utility.yul\":16960:17051   */\n      tag_348\n        /* \"#utility.yul\":17009:17050   */\n      tag_349\n        /* \"#utility.yul\":17033:17049   */\n      dup3\n        /* \"#utility.yul\":17009:17050   */\n      tag_184\n      jump\t// in\n    tag_349:\n        /* \"#utility.yul\":17001:17007   */\n      dup5\n        /* \"#utility.yul\":16994:16998   */\n      dup5\n        /* \"#utility.yul\":16988:16999   */\n      sload\n        /* \"#utility.yul\":16960:17051   */\n      tag_181\n      jump\t// in\n    tag_348:\n        /* \"#utility.yul\":16954:16958   */\n      dup3\n        /* \"#utility.yul\":16947:17052   */\n      sstore\n        /* \"#utility.yul\":16865:17058   */\n      pop\n        /* \"#utility.yul\":16789:17058   */\n      pop\n      pop\n      pop\n      jump\t// out\n        /* \"#utility.yul\":17064:17137   */\n    tag_186:\n        /* \"#utility.yul\":17109:17112   */\n      0x00\n        /* \"#utility.yul\":17064:17137   */\n      swap1\n      jump\t// out\n        /* \"#utility.yul\":17143:17332   */\n    tag_187:\n        /* \"#utility.yul\":17220:17252   */\n      tag_352\n      tag_186\n      jump\t// in\n    tag_352:\n        /* \"#utility.yul\":17261:17326   */\n      tag_353\n        /* \"#utility.yul\":17319:17325   */\n      dup2\n        /* \"#utility.yul\":17311:17317   */\n      dup5\n        /* \"#utility.yul\":17305:17309   */\n      dup5\n        /* \"#utility.yul\":17261:17326   */\n      tag_185\n      jump\t// in\n    tag_353:\n        /* \"#utility.yul\":17196:17332   */\n      pop\n        /* \"#utility.yul\":17143:17332   */\n      pop\n      pop\n      jump\t// out\n        /* \"#utility.yul\":17338:17524   */\n    tag_188:\n        /* \"#utility.yul\":17398:17518   */\n    tag_355:\n        /* \"#utility.yul\":17415:17418   */\n      dup2\n        /* \"#utility.yul\":17408:17413   */\n      dup2\n        /* \"#utility.yul\":17405:17419   */\n      lt\n        /* \"#utility.yul\":17398:17518   */\n      iszero\n      tag_357\n      jumpi\n        /* \"#utility.yul\":17469:17508   */\n      tag_358\n        /* \"#utility.yul\":17506:17507   */\n      0x00\n        /* \"#utility.yul\":17499:17504   */\n      dup3\n        /* \"#utility.yul\":17469:17508   */\n      tag_187\n      jump\t// in\n    tag_358:\n        /* \"#utility.yul\":17442:17443   */\n      0x01\n        /* \"#utility.yul\":17435:17440   */\n      dup2\n        /* \"#utility.yul\":17431:17444   */\n      add\n        /* \"#utility.yul\":17422:17444   */\n      swap1\n      pop\n        /* \"#utility.yul\":17398:17518   */\n      jump(tag_355)\n    tag_357:\n        /* \"#utility.yul\":17338:17524   */\n      pop\n      pop\n      jump\t// out\n        /* \"#utility.yul\":17530:18073   */\n    tag_189:\n        /* \"#utility.yul\":17631:17633   */\n      0x1f\n        /* \"#utility.yul\":17626:17629   */\n      dup3\n        /* \"#utility.yul\":17623:17634   */\n      gt\n        /* \"#utility.yul\":17620:18066   */\n      iszero\n      tag_360\n      jumpi\n        /* \"#utility.yul\":17665:17703   */\n      tag_361\n        /* \"#utility.yul\":17697:17702   */\n      dup2\n        /* \"#utility.yul\":17665:17703   */\n      tag_178\n      jump\t// in\n    tag_361:\n        /* \"#utility.yul\":17749:17778   */\n      tag_362\n        /* \"#utility.yul\":17767:17777   */\n      dup5\n        /* \"#utility.yul\":17749:17778   */\n      tag_179\n      jump\t// in\n    tag_362:\n        /* \"#utility.yul\":17739:17747   */\n      dup2\n        /* \"#utility.yul\":17735:17779   */\n      add\n        /* \"#utility.yul\":17932:17934   */\n      0x20\n        /* \"#utility.yul\":17920:17930   */\n      dup6\n        /* \"#utility.yul\":17917:17935   */\n      lt\n        /* \"#utility.yul\":17914:17963   */\n      iszero\n      tag_363\n      jumpi\n        /* \"#utility.yul\":17953:17961   */\n      dup2\n        /* \"#utility.yul\":17938:17961   */\n      swap1\n      pop\n        /* \"#utility.yul\":17914:17963   */\n    tag_363:\n        /* \"#utility.yul\":17976:18056   */\n      tag_364\n        /* \"#utility.yul\":18032:18054   */\n      tag_365\n        /* \"#utility.yul\":18050:18053   */\n      dup6\n        /* \"#utility.yul\":18032:18054   */\n      tag_179\n      jump\t// in\n    tag_365:\n        /* \"#utility.yul\":18022:18030   */\n      dup4\n        /* \"#utility.yul\":18018:18055   */\n      add\n        /* \"#utility.yul\":18005:18016   */\n      dup3\n        /* \"#utility.yul\":17976:18056   */\n      tag_188\n      jump\t// in\n    tag_364:\n        /* \"#utility.yul\":17635:18066   */\n      pop\n      pop\n        /* \"#utility.yul\":17620:18066   */\n    tag_360:\n        /* \"#utility.yul\":17530:18073   */\n      pop\n      pop\n      pop\n      jump\t// out\n        /* \"#utility.yul\":18079:18196   */\n    tag_190:\n        /* \"#utility.yul\":18133:18141   */\n      0x00\n        /* \"#utility.yul\":18183:18188   */\n      dup3\n        /* \"#utility.yul\":18177:18181   */\n      dup3\n        /* \"#utility.yul\":18173:18189   */\n      shr\n        /* \"#utility.yul\":18152:18189   */\n      swap1\n      pop\n        /* \"#utility.yul\":18079:18196   */\n      swap3\n      swap2\n      pop\n      pop\n      jump\t// out\n        /* \"#utility.yul\":18202:18371   */\n    tag_191:\n        /* \"#utility.yul\":18246:18252   */\n      0x00\n        /* \"#utility.yul\":18279:18330   */\n      tag_368\n        /* \"#utility.yul\":18327:18328   */\n      0x00\n        /* \"#utility.yul\":18323:18329   */\n      not\n        /* \"#utility.yul\":18315:18320   */\n      dup5\n        /* \"#utility.yul\":18312:18313   */\n      0x08\n        /* \"#utility.yul\":18308:18321   */\n      mul\n        /* \"#utility.yul\":18279:18330   */\n      tag_190\n      jump\t// in\n    tag_368:\n        /* \"#utility.yul\":18275:18331   */\n      not\n        /* \"#utility.yul\":18360:18364   */\n      dup1\n        /* \"#utility.yul\":18354:18358   */\n      dup4\n        /* \"#utility.yul\":18350:18365   */\n      and\n        /* \"#utility.yul\":18340:18365   */\n      swap2\n      pop\n        /* \"#utility.yul\":18253:18371   */\n      pop\n        /* \"#utility.yul\":18202:18371   */\n      swap3\n      swap2\n      pop\n      pop\n      jump\t// out\n        /* \"#utility.yul\":18376:18671   */\n    tag_192:\n        /* \"#utility.yul\":18452:18456   */\n      0x00\n        /* \"#utility.yul\":18598:18627   */\n      tag_370\n        /* \"#utility.yul\":18623:18626   */\n      dup4\n        /* \"#utility.yul\":18617:18621   */\n      dup4\n        /* \"#utility.yul\":18598:18627   */\n      tag_191\n      jump\t// in\n    tag_370:\n        /* \"#utility.yul\":18590:18627   */\n      swap2\n      pop\n        /* \"#utility.yul\":18660:18663   */\n      dup3\n        /* \"#utility.yul\":18657:18658   */\n      0x02\n        /* \"#utility.yul\":18653:18664   */\n      mul\n        /* \"#utility.yul\":18647:18651   */\n      dup3\n        /* \"#utility.yul\":18644:18665   */\n      or\n        /* \"#utility.yul\":18636:18665   */\n      swap1\n      pop\n        /* \"#utility.yul\":18376:18671   */\n      swap3\n      swap2\n      pop\n      pop\n      jump\t// out\n        /* \"#utility.yul\":18676:20071   */\n    tag_134:\n        /* \"#utility.yul\":18793:18830   */\n      tag_372\n        /* \"#utility.yul\":18826:18829   */\n      dup3\n        /* \"#utility.yul\":18793:18830   */\n      tag_136\n      jump\t// in\n    tag_372:\n        /* \"#utility.yul\":18895:18913   */\n      0xffffffffffffffff\n        /* \"#utility.yul\":18887:18893   */\n      dup2\n        /* \"#utility.yul\":18884:18914   */\n      gt\n        /* \"#utility.yul\":18881:18937   */\n      iszero\n      tag_373\n      jumpi\n        /* \"#utility.yul\":18917:18935   */\n      tag_374\n      tag_149\n      jump\t// in\n    tag_374:\n        /* \"#utility.yul\":18881:18937   */\n    tag_373:\n        /* \"#utility.yul\":18961:18999   */\n      tag_375\n        /* \"#utility.yul\":18993:18997   */\n      dup3\n        /* \"#utility.yul\":18987:18998   */\n      sload\n        /* \"#utility.yul\":18961:18999   */\n      tag_68\n      jump\t// in\n    tag_375:\n        /* \"#utility.yul\":19046:19113   */\n      tag_376\n        /* \"#utility.yul\":19106:19112   */\n      dup3\n        /* \"#utility.yul\":19098:19104   */\n      dup3\n        /* \"#utility.yul\":19092:19096   */\n      dup6\n        /* \"#utility.yul\":19046:19113   */\n      tag_189\n      jump\t// in\n    tag_376:\n        /* \"#utility.yul\":19140:19141   */\n      0x00\n        /* \"#utility.yul\":19164:19168   */\n      0x20\n        /* \"#utility.yul\":19151:19168   */\n      swap1\n      pop\n        /* \"#utility.yul\":19196:19198   */\n      0x1f\n        /* \"#utility.yul\":19188:19194   */\n      dup4\n        /* \"#utility.yul\":19185:19199   */\n      gt\n        /* \"#utility.yul\":19213:19214   */\n      0x01\n        /* \"#utility.yul\":19208:19826   */\n      dup2\n      eq\n      tag_378\n      jumpi\n        /* \"#utility.yul\":19870:19871   */\n      0x00\n        /* \"#utility.yul\":19887:19893   */\n      dup5\n        /* \"#utility.yul\":19884:19961   */\n      iszero\n      tag_379\n      jumpi\n        /* \"#utility.yul\":19936:19945   */\n      dup3\n        /* \"#utility.yul\":19931:19934   */\n      dup8\n        /* \"#utility.yul\":19927:19946   */\n      add\n        /* \"#utility.yul\":19921:19947   */\n      mload\n        /* \"#utility.yul\":19912:19947   */\n      swap1\n      pop\n        /* \"#utility.yul\":19884:19961   */\n    tag_379:\n        /* \"#utility.yul\":19987:20054   */\n      tag_380\n        /* \"#utility.yul\":20047:20053   */\n      dup6\n        /* \"#utility.yul\":20040:20045   */\n      dup3\n        /* \"#utility.yul\":19987:20054   */\n      tag_192\n      jump\t// in\n    tag_380:\n        /* \"#utility.yul\":19981:19985   */\n      dup7\n        /* \"#utility.yul\":19974:20055   */\n      sstore\n        /* \"#utility.yul\":19843:20065   */\n      pop\n        /* \"#utility.yul\":19178:20065   */\n      jump(tag_377)\n        /* \"#utility.yul\":19208:19826   */\n    tag_378:\n        /* \"#utility.yul\":19260:19264   */\n      0x1f\n        /* \"#utility.yul\":19256:19265   */\n      not\n        /* \"#utility.yul\":19248:19254   */\n      dup5\n        /* \"#utility.yul\":19244:19266   */\n      and\n        /* \"#utility.yul\":19294:19331   */\n      tag_381\n        /* \"#utility.yul\":19326:19330   */\n      dup7\n        /* \"#utility.yul\":19294:19331   */\n      tag_178\n      jump\t// in\n    tag_381:\n        /* \"#utility.yul\":19353:19354   */\n      0x00\n        /* \"#utility.yul\":19367:19575   */\n    tag_382:\n        /* \"#utility.yul\":19381:19388   */\n      dup3\n        /* \"#utility.yul\":19378:19379   */\n      dup2\n        /* \"#utility.yul\":19375:19389   */\n      lt\n        /* \"#utility.yul\":19367:19575   */\n      iszero\n      tag_384\n      jumpi\n        /* \"#utility.yul\":19460:19469   */\n      dup5\n        /* \"#utility.yul\":19455:19458   */\n      dup10\n        /* \"#utility.yul\":19451:19470   */\n      add\n        /* \"#utility.yul\":19445:19471   */\n      mload\n        /* \"#utility.yul\":19437:19443   */\n      dup3\n        /* \"#utility.yul\":19430:19472   */\n      sstore\n        /* \"#utility.yul\":19511:19512   */\n      0x01\n        /* \"#utility.yul\":19503:19509   */\n      dup3\n        /* \"#utility.yul\":19499:19513   */\n      add\n        /* \"#utility.yul\":19489:19513   */\n      swap2\n      pop\n        /* \"#utility.yul\":19558:19560   */\n      0x20\n        /* \"#utility.yul\":19547:19556   */\n      dup6\n        /* \"#utility.yul\":19543:19561   */\n      add\n        /* \"#utility.yul\":19530:19561   */\n      swap5\n      pop\n        /* \"#utility.yul\":19404:19408   */\n      0x20\n        /* \"#utility.yul\":19401:19402   */\n      dup2\n        /* \"#utility.yul\":19397:19409   */\n      add\n        /* \"#utility.yul\":19392:19409   */\n      swap1\n      pop\n        /* \"#utility.yul\":19367:19575   */\n      jump(tag_382)\n    tag_384:\n        /* \"#utility.yul\":19603:19609   */\n      dup7\n        /* \"#utility.yul\":19594:19601   */\n      dup4\n        /* \"#utility.yul\":19591:19610   */\n      lt\n        /* \"#utility.yul\":19588:19767   */\n      iszero\n      tag_385\n      jumpi\n        /* \"#utility.yul\":19661:19670   */\n      dup5\n        /* \"#utility.yul\":19656:19659   */\n      dup10\n        /* \"#utility.yul\":19652:19671   */\n      add\n        /* \"#utility.yul\":19646:19672   */\n      mload\n        /* \"#utility.yul\":19704:19752   */\n      tag_386\n        /* \"#utility.yul\":19746:19750   */\n      0x1f\n        /* \"#utility.yul\":19738:19744   */\n      dup10\n        /* \"#utility.yul\":19734:19751   */\n      and\n        /* \"#utility.yul\":19723:19732   */\n      dup3\n        /* \"#utility.yul\":19704:19752   */\n      tag_191\n      jump\t// in\n    tag_386:\n        /* \"#utility.yul\":19696:19702   */\n      dup4\n        /* \"#utility.yul\":19689:19753   */\n      sstore\n        /* \"#utility.yul\":19611:19767   */\n      pop\n        /* \"#utility.yul\":19588:19767   */\n    tag_385:\n        /* \"#utility.yul\":19813:19814   */\n      0x01\n        /* \"#utility.yul\":19809:19810   */\n      0x02\n        /* \"#utility.yul\":19801:19807   */\n      dup9\n        /* \"#utility.yul\":19797:19811   */\n      mul\n        /* \"#utility.yul\":19793:19815   */\n      add\n        /* \"#utility.yul\":19787:19791   */\n      dup9\n        /* \"#utility.yul\":19780:19816   */\n      sstore\n        /* \"#utility.yul\":19215:19826   */\n      pop\n      pop\n      pop\n        /* \"#utility.yul\":19178:20065   */\n    tag_377:\n      pop\n        /* \"#utility.yul\":18768:20071   */\n      pop\n      pop\n      pop\n        /* \"#utility.yul\":18676:20071   */\n      pop\n      pop\n      jump\t// out\n\n    auxdata: 0xa2646970667358221220703829545a9daf8d863ffc2792ec77d2f0792455b45e966a911d6b4a407979eb64736f6c63430008140033\n}\n",
				"bytecode": {
					"linkReferences": {},
					"object": "608060405234801561000f575f80fd5b506113b88061001d5f395ff3fe60806040526004361061009b575f3560e01c80636b7d7bff116100635780636b7d7bff14610155578063998dd3ca1461017f578063a175aae8146101bd578063d41b6db6146101e5578063d81c513a14610221578063e2f2d5f71461025d5761009b565b806301c7ddef1461009f57806304920d5c146100c95780630f541e2d146100e55780632e3a8d271461010f5780632f43a3e71461012b575b5f80fd5b3480156100aa575f80fd5b506100b3610287565b6040516100c091906109ac565b60405180910390f35b6100e360048036038101906100de9190610a10565b610317565b005b3480156100f0575f80fd5b506100f961054a565b60405161010691906109ac565b60405180910390f35b61012960048036038101906101249190610b67565b6105d6565b005b348015610136575f80fd5b5061013f610677565b60405161014c9190610c12565b60405180910390f35b348015610160575f80fd5b50610169610682565b6040516101769190610c12565b60405180910390f35b34801561018a575f80fd5b506101a560048036038101906101a09190610a10565b61068b565b6040516101b493929190610c2b565b60405180910390f35b3480156101c8575f80fd5b506101e360048036038101906101de9190610a10565b610746565b005b3480156101f0575f80fd5b5061020b60048036038101906102069190610cc1565b61084e565b6040516102189190610c12565b60405180910390f35b34801561022c575f80fd5b5061024760048036038101906102429190610a10565b610862565b6040516102549190610cfb565b60405180910390f35b348015610268575f80fd5b50610271610892565b60405161027e9190610c12565b60405180910390f35b60606004805461029690610d41565b80601f01602080910402602001604051908101604052809291908181526020018280546102c290610d41565b801561030d5780601f106102e45761010080835404028352916020019161030d565b820191905f5260205f20905b8154815290600101906020018083116102f057829003601f168201915b5050505050905090565b3373ffffffffffffffffffffffffffffffffffffffff1660015f8381526020019081526020015f205f9054906101000a900473ffffffffffffffffffffffffffffffffffffffff1673ffffffffffffffffffffffffffffffffffffffff16146103b5576040517f08c379a00000000000000000000000000000000000000000000000000000000081526004016103ac90610dbb565b60405180910390fd5b61016d600282815481106103cc576103cb610dd9565b5b905f5260205f20906003020160010154101561041d576040517f08c379a000000000000000000000000000000000000000000000000000000000815260040161041490610e50565b60405180910390fd5b5f6002828154811061043257610431610dd9565b5b905f5260205f2090600302016002015411610482576040517f08c379a000000000000000000000000000000000000000000000000000000000815260040161047990610eb8565b60405180910390fd5b662386f26fc1000034146104cb576040517f08c379a00000000000000000000000000000000000000000000000000000000081526004016104c290610f46565b60405180910390fd5b3373ffffffffffffffffffffffffffffffffffffffff166108fc3490811502906040515f60405180830381858888f1935050505015801561050e573d5f803e3d5ffd5b506002818154811061052357610522610dd9565b5b905f5260205f2090600302016002015f81548092919061054290610f91565b919050555050565b6004805461055790610d41565b80601f016020809104026020016040519081016040528092919081815260200182805461058390610d41565b80156105ce5780601f106105a5576101008083540402835291602001916105ce565b820191905f5260205f20905b8154815290600101906020018083116105b157829003601f168201915b505050505081565b670de0b6b3a7640000341015610621576040517f08c379a000000000000000000000000000000000000000000000000000000000815260040161061890611028565b60405180910390fd5b61062d84848484610898565b3073ffffffffffffffffffffffffffffffffffffffff166108fc3490811502906040515f60405180830381858888f19350505050158015610670573d5f803e3d5ffd5b5050505050565b662386f26fc1000081565b5f600354905090565b6002818154811061069a575f80fd5b905f5260205f2090600302015f91509050805f0180546106b990610d41565b80601f01602080910402602001604051908101604052809291908181526020018280546106e590610d41565b80156107305780601f1061070757610100808354040283529160200191610730565b820191905f5260205f20905b81548152906001019060200180831161071357829003601f168201915b5050505050908060010154908060020154905083565b3373ffffffffffffffffffffffffffffffffffffffff1660015f8381526020019081526020015f205f9054906101000a900473ffffffffffffffffffffffffffffffffffffffff1673ffffffffffffffffffffffffffffffffffffffff16146107e4576040517f08c379a00000000000000000000000000000000000000000000000000000000081526004016107db90611090565b60405180910390fd5b61016d600282815481106107fb576107fa610dd9565b5b905f5260205f209060030201600101541061084b576040517f08c379a0000000000000000000000000000000000000000000000000000000008152600401610842906110f8565b60405180910390fd5b50565b5f602052805f5260405f205f915090505481565b6001602052805f5260405f205f915054906101000a900473ffffffffffffffffffffffffffffffffffffffff1681565b60035481565b6002604051806060016040528086815260200185815260200184815250908060018154018082558091505060019003905f5260205f2090600302015f909190919091505f820151815f0190816108ee91906112b3565b506020820151816001015560408201518160020155505081600381905550806004908161091b91906112b3565b5050505050565b5f81519050919050565b5f82825260208201905092915050565b5f5b8381101561095957808201518184015260208101905061093e565b5f8484015250505050565b5f601f19601f8301169050919050565b5f61097e82610922565b610988818561092c565b935061099881856020860161093c565b6109a181610964565b840191505092915050565b5f6020820190508181035f8301526109c48184610974565b905092915050565b5f604051905090565b5f80fd5b5f80fd5b5f819050919050565b6109ef816109dd565b81146109f9575f80fd5b50565b5f81359050610a0a816109e6565b92915050565b5f60208284031215610a2557610a246109d5565b5b5f610a32848285016109fc565b91505092915050565b5f80fd5b5f80fd5b7f4e487b71000000000000000000000000000000000000000000000000000000005f52604160045260245ffd5b610a7982610964565b810181811067ffffffffffffffff82111715610a9857610a97610a43565b5b80604052505050565b5f610aaa6109cc565b9050610ab68282610a70565b919050565b5f67ffffffffffffffff821115610ad557610ad4610a43565b5b610ade82610964565b9050602081019050919050565b828183375f83830152505050565b5f610b0b610b0684610abb565b610aa1565b905082815260208101848484011115610b2757610b26610a3f565b5b610b32848285610aeb565b509392505050565b5f82601f830112610b4e57610b4d610a3b565b5b8135610b5e848260208601610af9565b91505092915050565b5f805f8060808587031215610b7f57610b7e6109d5565b5b5f85013567ffffffffffffffff811115610b9c57610b9b6109d9565b5b610ba887828801610b3a565b9450506020610bb9878288016109fc565b9350506040610bca878288016109fc565b925050606085013567ffffffffffffffff811115610beb57610bea6109d9565b5b610bf787828801610b3a565b91505092959194509250565b610c0c816109dd565b82525050565b5f602082019050610c255f830184610c03565b92915050565b5f6060820190508181035f830152610c438186610974565b9050610c526020830185610c03565b610c5f6040830184610c03565b949350505050565b5f73ffffffffffffffffffffffffffffffffffffffff82169050919050565b5f610c9082610c67565b9050919050565b610ca081610c86565b8114610caa575f80fd5b50565b5f81359050610cbb81610c97565b92915050565b5f60208284031215610cd657610cd56109d5565b5b5f610ce384828501610cad565b91505092915050565b610cf581610c86565b82525050565b5f602082019050610d0e5f830184610cec565b92915050565b7f4e487b71000000000000000000000000000000000000000000000000000000005f52602260045260245ffd5b5f6002820490506001821680610d5857607f821691505b602082108103610d6b57610d6a610d14565b5b50919050565b7f596f752063616e206f6e6c79206d696c6b20796f7572206f776e20636f772e005f82015250565b5f610da5601f8361092c565b9150610db082610d71565b602082019050919050565b5f6020820190508181035f830152610dd281610d99565b9050919050565b7f4e487b71000000000000000000000000000000000000000000000000000000005f52603260045260245ffd5b7f5468697320636f7720697320746f6f20796f756e6720746f206d696c6b2e00005f82015250565b5f610e3a601e8361092c565b9150610e4582610e06565b602082019050919050565b5f6020820190508181035f830152610e6781610e2e565b9050919050565b7f5468697320636f7720686173206e6f206d696c6b2e00000000000000000000005f82015250565b5f610ea260158361092c565b9150610ead82610e6e565b602082019050919050565b5f6020820190508181035f830152610ecf81610e96565b9050919050565b7f506c656173652073656e6420302e3120657468657220746f20676574206d696c5f8201527f6b2066726f6d207468697320636f772e00000000000000000000000000000000602082015250565b5f610f3060308361092c565b9150610f3b82610ed6565b604082019050919050565b5f6020820190508181035f830152610f5d81610f24565b9050919050565b7f4e487b71000000000000000000000000000000000000000000000000000000005f52601160045260245ffd5b5f610f9b826109dd565b91505f8203610fad57610fac610f64565b5b600182039050919050565b7f596f75206e65656420746f2073656e64206174206c65617374203120657468655f8201527f7220746f20627579206120636f772e0000000000000000000000000000000000602082015250565b5f611012602f8361092c565b915061101d82610fb8565b604082019050919050565b5f6020820190508181035f83015261103f81611006565b9050919050565b7f596f752063616e206f6e6c79206665656420796f7572206f776e20636f772e005f82015250565b5f61107a601f8361092c565b915061108582611046565b602082019050919050565b5f6020820190508181035f8301526110a78161106e565b9050919050565b7f5468697320636f7720697320746f6f206f6c6420746f20666565642e000000005f82015250565b5f6110e2601c8361092c565b91506110ed826110ae565b602082019050919050565b5f6020820190508181035f83015261110f816110d6565b9050919050565b5f819050815f5260205f209050919050565b5f6020601f8301049050919050565b5f82821b905092915050565b5f600883026111727fffffffffffffffffffffffffffffffffffffffffffffffffffffffffffffffff82611137565b61117c8683611137565b95508019841693508086168417925050509392505050565b5f819050919050565b5f6111b76111b26111ad846109dd565b611194565b6109dd565b9050919050565b5f819050919050565b6111d08361119d565b6111e46111dc826111be565b848454611143565b825550505050565b5f90565b6111f86111ec565b6112038184846111c7565b505050565b5b818110156112265761121b5f826111f0565b600181019050611209565b5050565b601f82111561126b5761123c81611116565b61124584611128565b81016020851015611254578190505b61126861126085611128565b830182611208565b50505b505050565b5f82821c905092915050565b5f61128b5f1984600802611270565b1980831691505092915050565b5f6112a3838361127c565b9150826002028217905092915050565b6112bc82610922565b67ffffffffffffffff8111156112d5576112d4610a43565b5b6112df8254610d41565b6112ea82828561122a565b5f60209050601f83116001811461131b575f8415611309578287015190505b6113138582611298565b86555061137a565b601f19841661132986611116565b5f5b828110156113505784890151825560018201915060208501945060208101905061132b565b8683101561136d5784890151611369601f89168261127c565b8355505b6001600288020188555050505b50505050505056fea2646970667358221220703829545a9daf8d863ffc2792ec77d2f0792455b45e966a911d6b4a407979eb64736f6c63430008140033",
					"opcodes": "PUSH1 0x80 PUSH1 0x40 MSTORE CALLVALUE DUP1 ISZERO PUSH2 0xF JUMPI PUSH0 DUP1 REVERT JUMPDEST POP PUSH2 0x13B8 DUP1 PUSH2 0x1D PUSH0 CODECOPY PUSH0 RETURN INVALID PUSH1 0x80 PUSH1 0x40 MSTORE PUSH1 0x4 CALLDATASIZE LT PUSH2 0x9B JUMPI PUSH0 CALLDATALOAD PUSH1 0xE0 SHR DUP1 PUSH4 0x6B7D7BFF GT PUSH2 0x63 JUMPI DUP1 PUSH4 0x6B7D7BFF EQ PUSH2 0x155 JUMPI DUP1 PUSH4 0x998DD3CA EQ PUSH2 0x17F JUMPI DUP1 PUSH4 0xA175AAE8 EQ PUSH2 0x1BD JUMPI DUP1 PUSH4 0xD41B6DB6 EQ PUSH2 0x1E5 JUMPI DUP1 PUSH4 0xD81C513A EQ PUSH2 0x221 JUMPI DUP1 PUSH4 0xE2F2D5F7 EQ PUSH2 0x25D JUMPI PUSH2 0x9B JUMP JUMPDEST DUP1 PUSH4 0x1C7DDEF EQ PUSH2 0x9F JUMPI DUP1 PUSH4 0x4920D5C EQ PUSH2 0xC9 JUMPI DUP1 PUSH4 0xF541E2D EQ PUSH2 0xE5 JUMPI DUP1 PUSH4 0x2E3A8D27 EQ PUSH2 0x10F JUMPI DUP1 PUSH4 0x2F43A3E7 EQ PUSH2 0x12B JUMPI JUMPDEST PUSH0 DUP1 REVERT JUMPDEST CALLVALUE DUP1 ISZERO PUSH2 0xAA JUMPI PUSH0 DUP1 REVERT JUMPDEST POP PUSH2 0xB3 PUSH2 0x287 JUMP JUMPDEST PUSH1 0x40 MLOAD PUSH2 0xC0 SWAP2 SWAP1 PUSH2 0x9AC JUMP JUMPDEST PUSH1 0x40 MLOAD DUP1 SWAP2 SUB SWAP1 RETURN JUMPDEST PUSH2 0xE3 PUSH1 0x4 DUP1 CALLDATASIZE SUB DUP2 ADD SWAP1 PUSH2 0xDE SWAP2 SWAP1 PUSH2 0xA10 JUMP JUMPDEST PUSH2 0x317 JUMP JUMPDEST STOP JUMPDEST CALLVALUE DUP1 ISZERO PUSH2 0xF0 JUMPI PUSH0 DUP1 REVERT JUMPDEST POP PUSH2 0xF9 PUSH2 0x54A JUMP JUMPDEST PUSH1 0x40 MLOAD PUSH2 0x106 SWAP2 SWAP1 PUSH2 0x9AC JUMP JUMPDEST PUSH1 0x40 MLOAD DUP1 SWAP2 SUB SWAP1 RETURN JUMPDEST PUSH2 0x129 PUSH1 0x4 DUP1 CALLDATASIZE SUB DUP2 ADD SWAP1 PUSH2 0x124 SWAP2 SWAP1 PUSH2 0xB67 JUMP JUMPDEST PUSH2 0x5D6 JUMP JUMPDEST STOP JUMPDEST CALLVALUE DUP1 ISZERO PUSH2 0x136 JUMPI PUSH0 DUP1 REVERT JUMPDEST POP PUSH2 0x13F PUSH2 0x677 JUMP JUMPDEST PUSH1 0x40 MLOAD PUSH2 0x14C SWAP2 SWAP1 PUSH2 0xC12 JUMP JUMPDEST PUSH1 0x40 MLOAD DUP1 SWAP2 SUB SWAP1 RETURN JUMPDEST CALLVALUE DUP1 ISZERO PUSH2 0x160 JUMPI PUSH0 DUP1 REVERT JUMPDEST POP PUSH2 0x169 PUSH2 0x682 JUMP JUMPDEST PUSH1 0x40 MLOAD PUSH2 0x176 SWAP2 SWAP1 PUSH2 0xC12 JUMP JUMPDEST PUSH1 0x40 MLOAD DUP1 SWAP2 SUB SWAP1 RETURN JUMPDEST CALLVALUE DUP1 ISZERO PUSH2 0x18A JUMPI PUSH0 DUP1 REVERT JUMPDEST POP PUSH2 0x1A5 PUSH1 0x4 DUP1 CALLDATASIZE SUB DUP2 ADD SWAP1 PUSH2 0x1A0 SWAP2 SWAP1 PUSH2 0xA10 JUMP JUMPDEST PUSH2 0x68B JUMP JUMPDEST PUSH1 0x40 MLOAD PUSH2 0x1B4 SWAP4 SWAP3 SWAP2 SWAP1 PUSH2 0xC2B JUMP JUMPDEST PUSH1 0x40 MLOAD DUP1 SWAP2 SUB SWAP1 RETURN JUMPDEST CALLVALUE DUP1 ISZERO PUSH2 0x1C8 JUMPI PUSH0 DUP1 REVERT JUMPDEST POP PUSH2 0x1E3 PUSH1 0x4 DUP1 CALLDATASIZE SUB DUP2 ADD SWAP1 PUSH2 0x1DE SWAP2 SWAP1 PUSH2 0xA10 JUMP JUMPDEST PUSH2 0x746 JUMP JUMPDEST STOP JUMPDEST CALLVALUE DUP1 ISZERO PUSH2 0x1F0 JUMPI PUSH0 DUP1 REVERT JUMPDEST POP PUSH2 0x20B PUSH1 0x4 DUP1 CALLDATASIZE SUB DUP2 ADD SWAP1 PUSH2 0x206 SWAP2 SWAP1 PUSH2 0xCC1 JUMP JUMPDEST PUSH2 0x84E JUMP JUMPDEST PUSH1 0x40 MLOAD PUSH2 0x218 SWAP2 SWAP1 PUSH2 0xC12 JUMP JUMPDEST PUSH1 0x40 MLOAD DUP1 SWAP2 SUB SWAP1 RETURN JUMPDEST CALLVALUE DUP1 ISZERO PUSH2 0x22C JUMPI PUSH0 DUP1 REVERT JUMPDEST POP PUSH2 0x247 PUSH1 0x4 DUP1 CALLDATASIZE SUB DUP2 ADD SWAP1 PUSH2 0x242 SWAP2 SWAP1 PUSH2 0xA10 JUMP JUMPDEST PUSH2 0x862 JUMP JUMPDEST PUSH1 0x40 MLOAD PUSH2 0x254 SWAP2 SWAP1 PUSH2 0xCFB JUMP JUMPDEST PUSH1 0x40 MLOAD DUP1 SWAP2 SUB SWAP1 RETURN JUMPDEST CALLVALUE DUP1 ISZERO PUSH2 0x268 JUMPI PUSH0 DUP1 REVERT JUMPDEST POP PUSH2 0x271 PUSH2 0x892 JUMP JUMPDEST PUSH1 0x40 MLOAD PUSH2 0x27E SWAP2 SWAP1 PUSH2 0xC12 JUMP JUMPDEST PUSH1 0x40 MLOAD DUP1 SWAP2 SUB SWAP1 RETURN JUMPDEST PUSH1 0x60 PUSH1 0x4 DUP1 SLOAD PUSH2 0x296 SWAP1 PUSH2 0xD41 JUMP JUMPDEST DUP1 PUSH1 0x1F ADD PUSH1 0x20 DUP1 SWAP2 DIV MUL PUSH1 0x20 ADD PUSH1 0x40 MLOAD SWAP1 DUP2 ADD PUSH1 0x40 MSTORE DUP1 SWAP3 SWAP2 SWAP1 DUP2 DUP2 MSTORE PUSH1 0x20 ADD DUP3 DUP1 SLOAD PUSH2 0x2C2 SWAP1 PUSH2 0xD41 JUMP JUMPDEST DUP1 ISZERO PUSH2 0x30D JUMPI DUP1 PUSH1 0x1F LT PUSH2 0x2E4 JUMPI PUSH2 0x100 DUP1 DUP4 SLOAD DIV MUL DUP4 MSTORE SWAP2 PUSH1 0x20 ADD SWAP2 PUSH2 0x30D JUMP JUMPDEST DUP3 ADD SWAP2 SWAP1 PUSH0 MSTORE PUSH1 0x20 PUSH0 KECCAK256 SWAP1 JUMPDEST DUP2 SLOAD DUP2 MSTORE SWAP1 PUSH1 0x1 ADD SWAP1 PUSH1 0x20 ADD DUP1 DUP4 GT PUSH2 0x2F0 JUMPI DUP3 SWAP1 SUB PUSH1 0x1F AND DUP3 ADD SWAP2 JUMPDEST POP POP POP POP POP SWAP1 POP SWAP1 JUMP JUMPDEST CALLER PUSH20 0xFFFFFFFFFFFFFFFFFFFFFFFFFFFFFFFFFFFFFFFF AND PUSH1 0x1 PUSH0 DUP4 DUP2 MSTORE PUSH1 0x20 ADD SWAP1 DUP2 MSTORE PUSH1 0x20 ADD PUSH0 KECCAK256 PUSH0 SWAP1 SLOAD SWAP1 PUSH2 0x100 EXP SWAP1 DIV PUSH20 0xFFFFFFFFFFFFFFFFFFFFFFFFFFFFFFFFFFFFFFFF AND PUSH20 0xFFFFFFFFFFFFFFFFFFFFFFFFFFFFFFFFFFFFFFFF AND EQ PUSH2 0x3B5 JUMPI PUSH1 0x40 MLOAD PUSH32 0x8C379A000000000000000000000000000000000000000000000000000000000 DUP2 MSTORE PUSH1 0x4 ADD PUSH2 0x3AC SWAP1 PUSH2 0xDBB JUMP JUMPDEST PUSH1 0x40 MLOAD DUP1 SWAP2 SUB SWAP1 REVERT JUMPDEST PUSH2 0x16D PUSH1 0x2 DUP3 DUP2 SLOAD DUP2 LT PUSH2 0x3CC JUMPI PUSH2 0x3CB PUSH2 0xDD9 JUMP JUMPDEST JUMPDEST SWAP1 PUSH0 MSTORE PUSH1 0x20 PUSH0 KECCAK256 SWAP1 PUSH1 0x3 MUL ADD PUSH1 0x1 ADD SLOAD LT ISZERO PUSH2 0x41D JUMPI PUSH1 0x40 MLOAD PUSH32 0x8C379A000000000000000000000000000000000000000000000000000000000 DUP2 MSTORE PUSH1 0x4 ADD PUSH2 0x414 SWAP1 PUSH2 0xE50 JUMP JUMPDEST PUSH1 0x40 MLOAD DUP1 SWAP2 SUB SWAP1 REVERT JUMPDEST PUSH0 PUSH1 0x2 DUP3 DUP2 SLOAD DUP2 LT PUSH2 0x432 JUMPI PUSH2 0x431 PUSH2 0xDD9 JUMP JUMPDEST JUMPDEST SWAP1 PUSH0 MSTORE PUSH1 0x20 PUSH0 KECCAK256 SWAP1 PUSH1 0x3 MUL ADD PUSH1 0x2 ADD SLOAD GT PUSH2 0x482 JUMPI PUSH1 0x40 MLOAD PUSH32 0x8C379A000000000000000000000000000000000000000000000000000000000 DUP2 MSTORE PUSH1 0x4 ADD PUSH2 0x479 SWAP1 PUSH2 0xEB8 JUMP JUMPDEST PUSH1 0x40 MLOAD DUP1 SWAP2 SUB SWAP1 REVERT JUMPDEST PUSH7 0x2386F26FC10000 CALLVALUE EQ PUSH2 0x4CB JUMPI PUSH1 0x40 MLOAD PUSH32 0x8C379A000000000000000000000000000000000000000000000000000000000 DUP2 MSTORE PUSH1 0x4 ADD PUSH2 0x4C2 SWAP1 PUSH2 0xF46 JUMP JUMPDEST PUSH1 0x40 MLOAD DUP1 SWAP2 SUB SWAP1 REVERT JUMPDEST CALLER PUSH20 0xFFFFFFFFFFFFFFFFFFFFFFFFFFFFFFFFFFFFFFFF AND PUSH2 0x8FC CALLVALUE SWAP1 DUP2 ISZERO MUL SWAP1 PUSH1 0x40 MLOAD PUSH0 PUSH1 0x40 MLOAD DUP1 DUP4 SUB DUP2 DUP6 DUP9 DUP9 CALL SWAP4 POP POP POP POP ISZERO DUP1 ISZERO PUSH2 0x50E JUMPI RETURNDATASIZE PUSH0 DUP1 RETURNDATACOPY RETURNDATASIZE PUSH0 REVERT JUMPDEST POP PUSH1 0x2 DUP2 DUP2 SLOAD DUP2 LT PUSH2 0x523 JUMPI PUSH2 0x522 PUSH2 0xDD9 JUMP JUMPDEST JUMPDEST SWAP1 PUSH0 MSTORE PUSH1 0x20 PUSH0 KECCAK256 SWAP1 PUSH1 0x3 MUL ADD PUSH1 0x2 ADD PUSH0 DUP2 SLOAD DUP1 SWAP3 SWAP2 SWAP1 PUSH2 0x542 SWAP1 PUSH2 0xF91 JUMP JUMPDEST SWAP2 SWAP1 POP SSTORE POP POP JUMP JUMPDEST PUSH1 0x4 DUP1 SLOAD PUSH2 0x557 SWAP1 PUSH2 0xD41 JUMP JUMPDEST DUP1 PUSH1 0x1F ADD PUSH1 0x20 DUP1 SWAP2 DIV MUL PUSH1 0x20 ADD PUSH1 0x40 MLOAD SWAP1 DUP2 ADD PUSH1 0x40 MSTORE DUP1 SWAP3 SWAP2 SWAP1 DUP2 DUP2 MSTORE PUSH1 0x20 ADD DUP3 DUP1 SLOAD PUSH2 0x583 SWAP1 PUSH2 0xD41 JUMP JUMPDEST DUP1 ISZERO PUSH2 0x5CE JUMPI DUP1 PUSH1 0x1F LT PUSH2 0x5A5 JUMPI PUSH2 0x100 DUP1 DUP4 SLOAD DIV MUL DUP4 MSTORE SWAP2 PUSH1 0x20 ADD SWAP2 PUSH2 0x5CE JUMP JUMPDEST DUP3 ADD SWAP2 SWAP1 PUSH0 MSTORE PUSH1 0x20 PUSH0 KECCAK256 SWAP1 JUMPDEST DUP2 SLOAD DUP2 MSTORE SWAP1 PUSH1 0x1 ADD SWAP1 PUSH1 0x20 ADD DUP1 DUP4 GT PUSH2 0x5B1 JUMPI DUP3 SWAP1 SUB PUSH1 0x1F AND DUP3 ADD SWAP2 JUMPDEST POP POP POP POP POP DUP2 JUMP JUMPDEST PUSH8 0xDE0B6B3A7640000 CALLVALUE LT ISZERO PUSH2 0x621 JUMPI PUSH1 0x40 MLOAD PUSH32 0x8C379A000000000000000000000000000000000000000000000000000000000 DUP2 MSTORE PUSH1 0x4 ADD PUSH2 0x618 SWAP1 PUSH2 0x1028 JUMP JUMPDEST PUSH1 0x40 MLOAD DUP1 SWAP2 SUB SWAP1 REVERT JUMPDEST PUSH2 0x62D DUP5 DUP5 DUP5 DUP5 PUSH2 0x898 JUMP JUMPDEST ADDRESS PUSH20 0xFFFFFFFFFFFFFFFFFFFFFFFFFFFFFFFFFFFFFFFF AND PUSH2 0x8FC CALLVALUE SWAP1 DUP2 ISZERO MUL SWAP1 PUSH1 0x40 MLOAD PUSH0 PUSH1 0x40 MLOAD DUP1 DUP4 SUB DUP2 DUP6 DUP9 DUP9 CALL SWAP4 POP POP POP POP ISZERO DUP1 ISZERO PUSH2 0x670 JUMPI RETURNDATASIZE PUSH0 DUP1 RETURNDATACOPY RETURNDATASIZE PUSH0 REVERT JUMPDEST POP POP POP POP POP JUMP JUMPDEST PUSH7 0x2386F26FC10000 DUP2 JUMP JUMPDEST PUSH0 PUSH1 0x3 SLOAD SWAP1 POP SWAP1 JUMP JUMPDEST PUSH1 0x2 DUP2 DUP2 SLOAD DUP2 LT PUSH2 0x69A JUMPI PUSH0 DUP1 REVERT JUMPDEST SWAP1 PUSH0 MSTORE PUSH1 0x20 PUSH0 KECCAK256 SWAP1 PUSH1 0x3 MUL ADD PUSH0 SWAP2 POP SWAP1 POP DUP1 PUSH0 ADD DUP1 SLOAD PUSH2 0x6B9 SWAP1 PUSH2 0xD41 JUMP JUMPDEST DUP1 PUSH1 0x1F ADD PUSH1 0x20 DUP1 SWAP2 DIV MUL PUSH1 0x20 ADD PUSH1 0x40 MLOAD SWAP1 DUP2 ADD PUSH1 0x40 MSTORE DUP1 SWAP3 SWAP2 SWAP1 DUP2 DUP2 MSTORE PUSH1 0x20 ADD DUP3 DUP1 SLOAD PUSH2 0x6E5 SWAP1 PUSH2 0xD41 JUMP JUMPDEST DUP1 ISZERO PUSH2 0x730 JUMPI DUP1 PUSH1 0x1F LT PUSH2 0x707 JUMPI PUSH2 0x100 DUP1 DUP4 SLOAD DIV MUL DUP4 MSTORE SWAP2 PUSH1 0x20 ADD SWAP2 PUSH2 0x730 JUMP JUMPDEST DUP3 ADD SWAP2 SWAP1 PUSH0 MSTORE PUSH1 0x20 PUSH0 KECCAK256 SWAP1 JUMPDEST DUP2 SLOAD DUP2 MSTORE SWAP1 PUSH1 0x1 ADD SWAP1 PUSH1 0x20 ADD DUP1 DUP4 GT PUSH2 0x713 JUMPI DUP3 SWAP1 SUB PUSH1 0x1F AND DUP3 ADD SWAP2 JUMPDEST POP POP POP POP POP SWAP1 DUP1 PUSH1 0x1 ADD SLOAD SWAP1 DUP1 PUSH1 0x2 ADD SLOAD SWAP1 POP DUP4 JUMP JUMPDEST CALLER PUSH20 0xFFFFFFFFFFFFFFFFFFFFFFFFFFFFFFFFFFFFFFFF AND PUSH1 0x1 PUSH0 DUP4 DUP2 MSTORE PUSH1 0x20 ADD SWAP1 DUP2 MSTORE PUSH1 0x20 ADD PUSH0 KECCAK256 PUSH0 SWAP1 SLOAD SWAP1 PUSH2 0x100 EXP SWAP1 DIV PUSH20 0xFFFFFFFFFFFFFFFFFFFFFFFFFFFFFFFFFFFFFFFF AND PUSH20 0xFFFFFFFFFFFFFFFFFFFFFFFFFFFFFFFFFFFFFFFF AND EQ PUSH2 0x7E4 JUMPI PUSH1 0x40 MLOAD PUSH32 0x8C379A000000000000000000000000000000000000000000000000000000000 DUP2 MSTORE PUSH1 0x4 ADD PUSH2 0x7DB SWAP1 PUSH2 0x1090 JUMP JUMPDEST PUSH1 0x40 MLOAD DUP1 SWAP2 SUB SWAP1 REVERT JUMPDEST PUSH2 0x16D PUSH1 0x2 DUP3 DUP2 SLOAD DUP2 LT PUSH2 0x7FB JUMPI PUSH2 0x7FA PUSH2 0xDD9 JUMP JUMPDEST JUMPDEST SWAP1 PUSH0 MSTORE PUSH1 0x20 PUSH0 KECCAK256 SWAP1 PUSH1 0x3 MUL ADD PUSH1 0x1 ADD SLOAD LT PUSH2 0x84B JUMPI PUSH1 0x40 MLOAD PUSH32 0x8C379A000000000000000000000000000000000000000000000000000000000 DUP2 MSTORE PUSH1 0x4 ADD PUSH2 0x842 SWAP1 PUSH2 0x10F8 JUMP JUMPDEST PUSH1 0x40 MLOAD DUP1 SWAP2 SUB SWAP1 REVERT JUMPDEST POP JUMP JUMPDEST PUSH0 PUSH1 0x20 MSTORE DUP1 PUSH0 MSTORE PUSH1 0x40 PUSH0 KECCAK256 PUSH0 SWAP2 POP SWAP1 POP SLOAD DUP2 JUMP JUMPDEST PUSH1 0x1 PUSH1 0x20 MSTORE DUP1 PUSH0 MSTORE PUSH1 0x40 PUSH0 KECCAK256 PUSH0 SWAP2 POP SLOAD SWAP1 PUSH2 0x100 EXP SWAP1 DIV PUSH20 0xFFFFFFFFFFFFFFFFFFFFFFFFFFFFFFFFFFFFFFFF AND DUP2 JUMP JUMPDEST PUSH1 0x3 SLOAD DUP2 JUMP JUMPDEST PUSH1 0x2 PUSH1 0x40 MLOAD DUP1 PUSH1 0x60 ADD PUSH1 0x40 MSTORE DUP1 DUP7 DUP2 MSTORE PUSH1 0x20 ADD DUP6 DUP2 MSTORE PUSH1 0x20 ADD DUP5 DUP2 MSTORE POP SWAP1 DUP1 PUSH1 0x1 DUP2 SLOAD ADD DUP1 DUP3 SSTORE DUP1 SWAP2 POP POP PUSH1 0x1 SWAP1 SUB SWAP1 PUSH0 MSTORE PUSH1 0x20 PUSH0 KECCAK256 SWAP1 PUSH1 0x3 MUL ADD PUSH0 SWAP1 SWAP2 SWAP1 SWAP2 SWAP1 SWAP2 POP PUSH0 DUP3 ADD MLOAD DUP2 PUSH0 ADD SWAP1 DUP2 PUSH2 0x8EE SWAP2 SWAP1 PUSH2 0x12B3 JUMP JUMPDEST POP PUSH1 0x20 DUP3 ADD MLOAD DUP2 PUSH1 0x1 ADD SSTORE PUSH1 0x40 DUP3 ADD MLOAD DUP2 PUSH1 0x2 ADD SSTORE POP POP DUP2 PUSH1 0x3 DUP2 SWAP1 SSTORE POP DUP1 PUSH1 0x4 SWAP1 DUP2 PUSH2 0x91B SWAP2 SWAP1 PUSH2 0x12B3 JUMP JUMPDEST POP POP POP POP POP JUMP JUMPDEST PUSH0 DUP2 MLOAD SWAP1 POP SWAP2 SWAP1 POP JUMP JUMPDEST PUSH0 DUP3 DUP3 MSTORE PUSH1 0x20 DUP3 ADD SWAP1 POP SWAP3 SWAP2 POP POP JUMP JUMPDEST PUSH0 JUMPDEST DUP4 DUP2 LT ISZERO PUSH2 0x959 JUMPI DUP1 DUP3 ADD MLOAD DUP2 DUP5 ADD MSTORE PUSH1 0x20 DUP2 ADD SWAP1 POP PUSH2 0x93E JUMP JUMPDEST PUSH0 DUP5 DUP5 ADD MSTORE POP POP POP POP JUMP JUMPDEST PUSH0 PUSH1 0x1F NOT PUSH1 0x1F DUP4 ADD AND SWAP1 POP SWAP2 SWAP1 POP JUMP JUMPDEST PUSH0 PUSH2 0x97E DUP3 PUSH2 0x922 JUMP JUMPDEST PUSH2 0x988 DUP2 DUP6 PUSH2 0x92C JUMP JUMPDEST SWAP4 POP PUSH2 0x998 DUP2 DUP6 PUSH1 0x20 DUP7 ADD PUSH2 0x93C JUMP JUMPDEST PUSH2 0x9A1 DUP2 PUSH2 0x964 JUMP JUMPDEST DUP5 ADD SWAP2 POP POP SWAP3 SWAP2 POP POP JUMP JUMPDEST PUSH0 PUSH1 0x20 DUP3 ADD SWAP1 POP DUP2 DUP2 SUB PUSH0 DUP4 ADD MSTORE PUSH2 0x9C4 DUP2 DUP5 PUSH2 0x974 JUMP JUMPDEST SWAP1 POP SWAP3 SWAP2 POP POP JUMP JUMPDEST PUSH0 PUSH1 0x40 MLOAD SWAP1 POP SWAP1 JUMP JUMPDEST PUSH0 DUP1 REVERT JUMPDEST PUSH0 DUP1 REVERT JUMPDEST PUSH0 DUP2 SWAP1 POP SWAP2 SWAP1 POP JUMP JUMPDEST PUSH2 0x9EF DUP2 PUSH2 0x9DD JUMP JUMPDEST DUP2 EQ PUSH2 0x9F9 JUMPI PUSH0 DUP1 REVERT JUMPDEST POP JUMP JUMPDEST PUSH0 DUP2 CALLDATALOAD SWAP1 POP PUSH2 0xA0A DUP2 PUSH2 0x9E6 JUMP JUMPDEST SWAP3 SWAP2 POP POP JUMP JUMPDEST PUSH0 PUSH1 0x20 DUP3 DUP5 SUB SLT ISZERO PUSH2 0xA25 JUMPI PUSH2 0xA24 PUSH2 0x9D5 JUMP JUMPDEST JUMPDEST PUSH0 PUSH2 0xA32 DUP5 DUP3 DUP6 ADD PUSH2 0x9FC JUMP JUMPDEST SWAP2 POP POP SWAP3 SWAP2 POP POP JUMP JUMPDEST PUSH0 DUP1 REVERT JUMPDEST PUSH0 DUP1 REVERT JUMPDEST PUSH32 0x4E487B7100000000000000000000000000000000000000000000000000000000 PUSH0 MSTORE PUSH1 0x41 PUSH1 0x4 MSTORE PUSH1 0x24 PUSH0 REVERT JUMPDEST PUSH2 0xA79 DUP3 PUSH2 0x964 JUMP JUMPDEST DUP2 ADD DUP2 DUP2 LT PUSH8 0xFFFFFFFFFFFFFFFF DUP3 GT OR ISZERO PUSH2 0xA98 JUMPI PUSH2 0xA97 PUSH2 0xA43 JUMP JUMPDEST JUMPDEST DUP1 PUSH1 0x40 MSTORE POP POP POP JUMP JUMPDEST PUSH0 PUSH2 0xAAA PUSH2 0x9CC JUMP JUMPDEST SWAP1 POP PUSH2 0xAB6 DUP3 DUP3 PUSH2 0xA70 JUMP JUMPDEST SWAP2 SWAP1 POP JUMP JUMPDEST PUSH0 PUSH8 0xFFFFFFFFFFFFFFFF DUP3 GT ISZERO PUSH2 0xAD5 JUMPI PUSH2 0xAD4 PUSH2 0xA43 JUMP JUMPDEST JUMPDEST PUSH2 0xADE DUP3 PUSH2 0x964 JUMP JUMPDEST SWAP1 POP PUSH1 0x20 DUP2 ADD SWAP1 POP SWAP2 SWAP1 POP JUMP JUMPDEST DUP3 DUP2 DUP4 CALLDATACOPY PUSH0 DUP4 DUP4 ADD MSTORE POP POP POP JUMP JUMPDEST PUSH0 PUSH2 0xB0B PUSH2 0xB06 DUP5 PUSH2 0xABB JUMP JUMPDEST PUSH2 0xAA1 JUMP JUMPDEST SWAP1 POP DUP3 DUP2 MSTORE PUSH1 0x20 DUP2 ADD DUP5 DUP5 DUP5 ADD GT ISZERO PUSH2 0xB27 JUMPI PUSH2 0xB26 PUSH2 0xA3F JUMP JUMPDEST JUMPDEST PUSH2 0xB32 DUP5 DUP3 DUP6 PUSH2 0xAEB JUMP JUMPDEST POP SWAP4 SWAP3 POP POP POP JUMP JUMPDEST PUSH0 DUP3 PUSH1 0x1F DUP4 ADD SLT PUSH2 0xB4E JUMPI PUSH2 0xB4D PUSH2 0xA3B JUMP JUMPDEST JUMPDEST DUP2 CALLDATALOAD PUSH2 0xB5E DUP5 DUP3 PUSH1 0x20 DUP7 ADD PUSH2 0xAF9 JUMP JUMPDEST SWAP2 POP POP SWAP3 SWAP2 POP POP JUMP JUMPDEST PUSH0 DUP1 PUSH0 DUP1 PUSH1 0x80 DUP6 DUP8 SUB SLT ISZERO PUSH2 0xB7F JUMPI PUSH2 0xB7E PUSH2 0x9D5 JUMP JUMPDEST JUMPDEST PUSH0 DUP6 ADD CALLDATALOAD PUSH8 0xFFFFFFFFFFFFFFFF DUP2 GT ISZERO PUSH2 0xB9C JUMPI PUSH2 0xB9B PUSH2 0x9D9 JUMP JUMPDEST JUMPDEST PUSH2 0xBA8 DUP8 DUP3 DUP9 ADD PUSH2 0xB3A JUMP JUMPDEST SWAP5 POP POP PUSH1 0x20 PUSH2 0xBB9 DUP8 DUP3 DUP9 ADD PUSH2 0x9FC JUMP JUMPDEST SWAP4 POP POP PUSH1 0x40 PUSH2 0xBCA DUP8 DUP3 DUP9 ADD PUSH2 0x9FC JUMP JUMPDEST SWAP3 POP POP PUSH1 0x60 DUP6 ADD CALLDATALOAD PUSH8 0xFFFFFFFFFFFFFFFF DUP2 GT ISZERO PUSH2 0xBEB JUMPI PUSH2 0xBEA PUSH2 0x9D9 JUMP JUMPDEST JUMPDEST PUSH2 0xBF7 DUP8 DUP3 DUP9 ADD PUSH2 0xB3A JUMP JUMPDEST SWAP2 POP POP SWAP3 SWAP6 SWAP2 SWAP5 POP SWAP3 POP JUMP JUMPDEST PUSH2 0xC0C DUP2 PUSH2 0x9DD JUMP JUMPDEST DUP3 MSTORE POP POP JUMP JUMPDEST PUSH0 PUSH1 0x20 DUP3 ADD SWAP1 POP PUSH2 0xC25 PUSH0 DUP4 ADD DUP5 PUSH2 0xC03 JUMP JUMPDEST SWAP3 SWAP2 POP POP JUMP JUMPDEST PUSH0 PUSH1 0x60 DUP3 ADD SWAP1 POP DUP2 DUP2 SUB PUSH0 DUP4 ADD MSTORE PUSH2 0xC43 DUP2 DUP7 PUSH2 0x974 JUMP JUMPDEST SWAP1 POP PUSH2 0xC52 PUSH1 0x20 DUP4 ADD DUP6 PUSH2 0xC03 JUMP JUMPDEST PUSH2 0xC5F PUSH1 0x40 DUP4 ADD DUP5 PUSH2 0xC03 JUMP JUMPDEST SWAP5 SWAP4 POP POP POP POP JUMP JUMPDEST PUSH0 PUSH20 0xFFFFFFFFFFFFFFFFFFFFFFFFFFFFFFFFFFFFFFFF DUP3 AND SWAP1 POP SWAP2 SWAP1 POP JUMP JUMPDEST PUSH0 PUSH2 0xC90 DUP3 PUSH2 0xC67 JUMP JUMPDEST SWAP1 POP SWAP2 SWAP1 POP JUMP JUMPDEST PUSH2 0xCA0 DUP2 PUSH2 0xC86 JUMP JUMPDEST DUP2 EQ PUSH2 0xCAA JUMPI PUSH0 DUP1 REVERT JUMPDEST POP JUMP JUMPDEST PUSH0 DUP2 CALLDATALOAD SWAP1 POP PUSH2 0xCBB DUP2 PUSH2 0xC97 JUMP JUMPDEST SWAP3 SWAP2 POP POP JUMP JUMPDEST PUSH0 PUSH1 0x20 DUP3 DUP5 SUB SLT ISZERO PUSH2 0xCD6 JUMPI PUSH2 0xCD5 PUSH2 0x9D5 JUMP JUMPDEST JUMPDEST PUSH0 PUSH2 0xCE3 DUP5 DUP3 DUP6 ADD PUSH2 0xCAD JUMP JUMPDEST SWAP2 POP POP SWAP3 SWAP2 POP POP JUMP JUMPDEST PUSH2 0xCF5 DUP2 PUSH2 0xC86 JUMP JUMPDEST DUP3 MSTORE POP POP JUMP JUMPDEST PUSH0 PUSH1 0x20 DUP3 ADD SWAP1 POP PUSH2 0xD0E PUSH0 DUP4 ADD DUP5 PUSH2 0xCEC JUMP JUMPDEST SWAP3 SWAP2 POP POP JUMP JUMPDEST PUSH32 0x4E487B7100000000000000000000000000000000000000000000000000000000 PUSH0 MSTORE PUSH1 0x22 PUSH1 0x4 MSTORE PUSH1 0x24 PUSH0 REVERT JUMPDEST PUSH0 PUSH1 0x2 DUP3 DIV SWAP1 POP PUSH1 0x1 DUP3 AND DUP1 PUSH2 0xD58 JUMPI PUSH1 0x7F DUP3 AND SWAP2 POP JUMPDEST PUSH1 0x20 DUP3 LT DUP2 SUB PUSH2 0xD6B JUMPI PUSH2 0xD6A PUSH2 0xD14 JUMP JUMPDEST JUMPDEST POP SWAP2 SWAP1 POP JUMP JUMPDEST PUSH32 0x596F752063616E206F6E6C79206D696C6B20796F7572206F776E20636F772E00 PUSH0 DUP3 ADD MSTORE POP JUMP JUMPDEST PUSH0 PUSH2 0xDA5 PUSH1 0x1F DUP4 PUSH2 0x92C JUMP JUMPDEST SWAP2 POP PUSH2 0xDB0 DUP3 PUSH2 0xD71 JUMP JUMPDEST PUSH1 0x20 DUP3 ADD SWAP1 POP SWAP2 SWAP1 POP JUMP JUMPDEST PUSH0 PUSH1 0x20 DUP3 ADD SWAP1 POP DUP2 DUP2 SUB PUSH0 DUP4 ADD MSTORE PUSH2 0xDD2 DUP2 PUSH2 0xD99 JUMP JUMPDEST SWAP1 POP SWAP2 SWAP1 POP JUMP JUMPDEST PUSH32 0x4E487B7100000000000000000000000000000000000000000000000000000000 PUSH0 MSTORE PUSH1 0x32 PUSH1 0x4 MSTORE PUSH1 0x24 PUSH0 REVERT JUMPDEST PUSH32 0x5468697320636F7720697320746F6F20796F756E6720746F206D696C6B2E0000 PUSH0 DUP3 ADD MSTORE POP JUMP JUMPDEST PUSH0 PUSH2 0xE3A PUSH1 0x1E DUP4 PUSH2 0x92C JUMP JUMPDEST SWAP2 POP PUSH2 0xE45 DUP3 PUSH2 0xE06 JUMP JUMPDEST PUSH1 0x20 DUP3 ADD SWAP1 POP SWAP2 SWAP1 POP JUMP JUMPDEST PUSH0 PUSH1 0x20 DUP3 ADD SWAP1 POP DUP2 DUP2 SUB PUSH0 DUP4 ADD MSTORE PUSH2 0xE67 DUP2 PUSH2 0xE2E JUMP JUMPDEST SWAP1 POP SWAP2 SWAP1 POP JUMP JUMPDEST PUSH32 0x5468697320636F7720686173206E6F206D696C6B2E0000000000000000000000 PUSH0 DUP3 ADD MSTORE POP JUMP JUMPDEST PUSH0 PUSH2 0xEA2 PUSH1 0x15 DUP4 PUSH2 0x92C JUMP JUMPDEST SWAP2 POP PUSH2 0xEAD DUP3 PUSH2 0xE6E JUMP JUMPDEST PUSH1 0x20 DUP3 ADD SWAP1 POP SWAP2 SWAP1 POP JUMP JUMPDEST PUSH0 PUSH1 0x20 DUP3 ADD SWAP1 POP DUP2 DUP2 SUB PUSH0 DUP4 ADD MSTORE PUSH2 0xECF DUP2 PUSH2 0xE96 JUMP JUMPDEST SWAP1 POP SWAP2 SWAP1 POP JUMP JUMPDEST PUSH32 0x506C656173652073656E6420302E3120657468657220746F20676574206D696C PUSH0 DUP3 ADD MSTORE PUSH32 0x6B2066726F6D207468697320636F772E00000000000000000000000000000000 PUSH1 0x20 DUP3 ADD MSTORE POP JUMP JUMPDEST PUSH0 PUSH2 0xF30 PUSH1 0x30 DUP4 PUSH2 0x92C JUMP JUMPDEST SWAP2 POP PUSH2 0xF3B DUP3 PUSH2 0xED6 JUMP JUMPDEST PUSH1 0x40 DUP3 ADD SWAP1 POP SWAP2 SWAP1 POP JUMP JUMPDEST PUSH0 PUSH1 0x20 DUP3 ADD SWAP1 POP DUP2 DUP2 SUB PUSH0 DUP4 ADD MSTORE PUSH2 0xF5D DUP2 PUSH2 0xF24 JUMP JUMPDEST SWAP1 POP SWAP2 SWAP1 POP JUMP JUMPDEST PUSH32 0x4E487B7100000000000000000000000000000000000000000000000000000000 PUSH0 MSTORE PUSH1 0x11 PUSH1 0x4 MSTORE PUSH1 0x24 PUSH0 REVERT JUMPDEST PUSH0 PUSH2 0xF9B DUP3 PUSH2 0x9DD JUMP JUMPDEST SWAP2 POP PUSH0 DUP3 SUB PUSH2 0xFAD JUMPI PUSH2 0xFAC PUSH2 0xF64 JUMP JUMPDEST JUMPDEST PUSH1 0x1 DUP3 SUB SWAP1 POP SWAP2 SWAP1 POP JUMP JUMPDEST PUSH32 0x596F75206E65656420746F2073656E64206174206C6561737420312065746865 PUSH0 DUP3 ADD MSTORE PUSH32 0x7220746F20627579206120636F772E0000000000000000000000000000000000 PUSH1 0x20 DUP3 ADD MSTORE POP JUMP JUMPDEST PUSH0 PUSH2 0x1012 PUSH1 0x2F DUP4 PUSH2 0x92C JUMP JUMPDEST SWAP2 POP PUSH2 0x101D DUP3 PUSH2 0xFB8 JUMP JUMPDEST PUSH1 0x40 DUP3 ADD SWAP1 POP SWAP2 SWAP1 POP JUMP JUMPDEST PUSH0 PUSH1 0x20 DUP3 ADD SWAP1 POP DUP2 DUP2 SUB PUSH0 DUP4 ADD MSTORE PUSH2 0x103F DUP2 PUSH2 0x1006 JUMP JUMPDEST SWAP1 POP SWAP2 SWAP1 POP JUMP JUMPDEST PUSH32 0x596F752063616E206F6E6C79206665656420796F7572206F776E20636F772E00 PUSH0 DUP3 ADD MSTORE POP JUMP JUMPDEST PUSH0 PUSH2 0x107A PUSH1 0x1F DUP4 PUSH2 0x92C JUMP JUMPDEST SWAP2 POP PUSH2 0x1085 DUP3 PUSH2 0x1046 JUMP JUMPDEST PUSH1 0x20 DUP3 ADD SWAP1 POP SWAP2 SWAP1 POP JUMP JUMPDEST PUSH0 PUSH1 0x20 DUP3 ADD SWAP1 POP DUP2 DUP2 SUB PUSH0 DUP4 ADD MSTORE PUSH2 0x10A7 DUP2 PUSH2 0x106E JUMP JUMPDEST SWAP1 POP SWAP2 SWAP1 POP JUMP JUMPDEST PUSH32 0x5468697320636F7720697320746F6F206F6C6420746F20666565642E00000000 PUSH0 DUP3 ADD MSTORE POP JUMP JUMPDEST PUSH0 PUSH2 0x10E2 PUSH1 0x1C DUP4 PUSH2 0x92C JUMP JUMPDEST SWAP2 POP PUSH2 0x10ED DUP3 PUSH2 0x10AE JUMP JUMPDEST PUSH1 0x20 DUP3 ADD SWAP1 POP SWAP2 SWAP1 POP JUMP JUMPDEST PUSH0 PUSH1 0x20 DUP3 ADD SWAP1 POP DUP2 DUP2 SUB PUSH0 DUP4 ADD MSTORE PUSH2 0x110F DUP2 PUSH2 0x10D6 JUMP JUMPDEST SWAP1 POP SWAP2 SWAP1 POP JUMP JUMPDEST PUSH0 DUP2 SWAP1 POP DUP2 PUSH0 MSTORE PUSH1 0x20 PUSH0 KECCAK256 SWAP1 POP SWAP2 SWAP1 POP JUMP JUMPDEST PUSH0 PUSH1 0x20 PUSH1 0x1F DUP4 ADD DIV SWAP1 POP SWAP2 SWAP1 POP JUMP JUMPDEST PUSH0 DUP3 DUP3 SHL SWAP1 POP SWAP3 SWAP2 POP POP JUMP JUMPDEST PUSH0 PUSH1 0x8 DUP4 MUL PUSH2 0x1172 PUSH32 0xFFFFFFFFFFFFFFFFFFFFFFFFFFFFFFFFFFFFFFFFFFFFFFFFFFFFFFFFFFFFFFFF DUP3 PUSH2 0x1137 JUMP JUMPDEST PUSH2 0x117C DUP7 DUP4 PUSH2 0x1137 JUMP JUMPDEST SWAP6 POP DUP1 NOT DUP5 AND SWAP4 POP DUP1 DUP7 AND DUP5 OR SWAP3 POP POP POP SWAP4 SWAP3 POP POP POP JUMP JUMPDEST PUSH0 DUP2 SWAP1 POP SWAP2 SWAP1 POP JUMP JUMPDEST PUSH0 PUSH2 0x11B7 PUSH2 0x11B2 PUSH2 0x11AD DUP5 PUSH2 0x9DD JUMP JUMPDEST PUSH2 0x1194 JUMP JUMPDEST PUSH2 0x9DD JUMP JUMPDEST SWAP1 POP SWAP2 SWAP1 POP JUMP JUMPDEST PUSH0 DUP2 SWAP1 POP SWAP2 SWAP1 POP JUMP JUMPDEST PUSH2 0x11D0 DUP4 PUSH2 0x119D JUMP JUMPDEST PUSH2 0x11E4 PUSH2 0x11DC DUP3 PUSH2 0x11BE JUMP JUMPDEST DUP5 DUP5 SLOAD PUSH2 0x1143 JUMP JUMPDEST DUP3 SSTORE POP POP POP POP JUMP JUMPDEST PUSH0 SWAP1 JUMP JUMPDEST PUSH2 0x11F8 PUSH2 0x11EC JUMP JUMPDEST PUSH2 0x1203 DUP2 DUP5 DUP5 PUSH2 0x11C7 JUMP JUMPDEST POP POP POP JUMP JUMPDEST JUMPDEST DUP2 DUP2 LT ISZERO PUSH2 0x1226 JUMPI PUSH2 0x121B PUSH0 DUP3 PUSH2 0x11F0 JUMP JUMPDEST PUSH1 0x1 DUP2 ADD SWAP1 POP PUSH2 0x1209 JUMP JUMPDEST POP POP JUMP JUMPDEST PUSH1 0x1F DUP3 GT ISZERO PUSH2 0x126B JUMPI PUSH2 0x123C DUP2 PUSH2 0x1116 JUMP JUMPDEST PUSH2 0x1245 DUP5 PUSH2 0x1128 JUMP JUMPDEST DUP2 ADD PUSH1 0x20 DUP6 LT ISZERO PUSH2 0x1254 JUMPI DUP2 SWAP1 POP JUMPDEST PUSH2 0x1268 PUSH2 0x1260 DUP6 PUSH2 0x1128 JUMP JUMPDEST DUP4 ADD DUP3 PUSH2 0x1208 JUMP JUMPDEST POP POP JUMPDEST POP POP POP JUMP JUMPDEST PUSH0 DUP3 DUP3 SHR SWAP1 POP SWAP3 SWAP2 POP POP JUMP JUMPDEST PUSH0 PUSH2 0x128B PUSH0 NOT DUP5 PUSH1 0x8 MUL PUSH2 0x1270 JUMP JUMPDEST NOT DUP1 DUP4 AND SWAP2 POP POP SWAP3 SWAP2 POP POP JUMP JUMPDEST PUSH0 PUSH2 0x12A3 DUP4 DUP4 PUSH2 0x127C JUMP JUMPDEST SWAP2 POP DUP3 PUSH1 0x2 MUL DUP3 OR SWAP1 POP SWAP3 SWAP2 POP POP JUMP JUMPDEST PUSH2 0x12BC DUP3 PUSH2 0x922 JUMP JUMPDEST PUSH8 0xFFFFFFFFFFFFFFFF DUP2 GT ISZERO PUSH2 0x12D5 JUMPI PUSH2 0x12D4 PUSH2 0xA43 JUMP JUMPDEST JUMPDEST PUSH2 0x12DF DUP3 SLOAD PUSH2 0xD41 JUMP JUMPDEST PUSH2 0x12EA DUP3 DUP3 DUP6 PUSH2 0x122A JUMP JUMPDEST PUSH0 PUSH1 0x20 SWAP1 POP PUSH1 0x1F DUP4 GT PUSH1 0x1 DUP2 EQ PUSH2 0x131B JUMPI PUSH0 DUP5 ISZERO PUSH2 0x1309 JUMPI DUP3 DUP8 ADD MLOAD SWAP1 POP JUMPDEST PUSH2 0x1313 DUP6 DUP3 PUSH2 0x1298 JUMP JUMPDEST DUP7 SSTORE POP PUSH2 0x137A JUMP JUMPDEST PUSH1 0x1F NOT DUP5 AND PUSH2 0x1329 DUP7 PUSH2 0x1116 JUMP JUMPDEST PUSH0 JUMPDEST DUP3 DUP2 LT ISZERO PUSH2 0x1350 JUMPI DUP5 DUP10 ADD MLOAD DUP3 SSTORE PUSH1 0x1 DUP3 ADD SWAP2 POP PUSH1 0x20 DUP6 ADD SWAP5 POP PUSH1 0x20 DUP2 ADD SWAP1 POP PUSH2 0x132B JUMP JUMPDEST DUP7 DUP4 LT ISZERO PUSH2 0x136D JUMPI DUP5 DUP10 ADD MLOAD PUSH2 0x1369 PUSH1 0x1F DUP10 AND DUP3 PUSH2 0x127C JUMP JUMPDEST DUP4 SSTORE POP JUMPDEST PUSH1 0x1 PUSH1 0x2 DUP9 MUL ADD DUP9 SSTORE POP POP POP JUMPDEST POP POP POP POP POP POP JUMP INVALID LOG2 PUSH5 0x6970667358 0x22 SLT KECCAK256 PUSH17 0x3829545A9DAF8D863FFC2792EC77D2F079 0x24 SSTORE 0xB4 0x5E SWAP7 PUSH11 0x911D6B4A407979EB64736F PUSH13 0x63430008140033000000000000 "
				},
				"gasEstimates": {
					"creation": {
						"codeDepositCost": "1009600",
						"executionCost": "1045",
						"totalCost": "1010645"
					},
					"external": {
						"animalToOwner(uint256)": "2915",
						"animals(uint256)": "infinite",
						"buyCow(string,uint256,uint256,string)": "infinite",
						"cowCollor()": "infinite",
						"dayMilk()": "2535",
						"feedCow(uint256)": "7290",
						"getCowColor()": "infinite",
						"getDayMilk()": "2432",
						"level(address)": "2867",
						"milkCow(uint256)": "infinite",
						"milkPrice()": "414"
					},
					"internal": {
						"createCow(string memory,uint256,uint256,string memory)": "infinite"
					}
				},
				"methodIdentifiers": {
					"animalToOwner(uint256)": "d81c513a",
					"animals(uint256)": "998dd3ca",
					"buyCow(string,uint256,uint256,string)": "2e3a8d27",
					"cowCollor()": "0f541e2d",
					"dayMilk()": "e2f2d5f7",
					"feedCow(uint256)": "a175aae8",
					"getCowColor()": "01c7ddef",
					"getDayMilk()": "6b7d7bff",
					"level(address)": "d41b6db6",
					"milkCow(uint256)": "04920d5c",
					"milkPrice()": "2f43a3e7"
				}
			},
			"storageLayout": {
				"storage": [
					{
						"astId": 12,
						"contract": "contracts/cow.sol:Cow",
						"label": "level",
						"offset": 0,
						"slot": "0",
						"type": "t_mapping(t_address,t_uint256)"
					},
					{
						"astId": 16,
						"contract": "contracts/cow.sol:Cow",
						"label": "animalToOwner",
						"offset": 0,
						"slot": "1",
						"type": "t_mapping(t_uint256,t_address)"
					},
					{
						"astId": 20,
						"contract": "contracts/cow.sol:Cow",
						"label": "animals",
						"offset": 0,
						"slot": "2",
						"type": "t_array(t_struct(Animal)8_storage)dyn_storage"
					},
					{
						"astId": 70,
						"contract": "contracts/cow.sol:Cow",
						"label": "dayMilk",
						"offset": 0,
						"slot": "3",
						"type": "t_uint256"
					},
					{
						"astId": 72,
						"contract": "contracts/cow.sol:Cow",
						"label": "cowCollor",
						"offset": 0,
						"slot": "4",
						"type": "t_string_storage"
					}
				],
				"types": {
					"t_address": {
						"encoding": "inplace",
						"label": "address",
						"numberOfBytes": "20"
					},
					"t_array(t_struct(Animal)8_storage)dyn_storage": {
						"base": "t_struct(Animal)8_storage",
						"encoding": "dynamic_array",
						"label": "struct Animals.Animal[]",
						"numberOfBytes": "32"
					},
					"t_mapping(t_address,t_uint256)": {
						"encoding": "mapping",
						"key": "t_address",
						"label": "mapping(address => uint256)",
						"numberOfBytes": "32",
						"value": "t_uint256"
					},
					"t_mapping(t_uint256,t_address)": {
						"encoding": "mapping",
						"key": "t_uint256",
						"label": "mapping(uint256 => address)",
						"numberOfBytes": "32",
						"value": "t_address"
					},
					"t_string_storage": {
						"encoding": "bytes",
						"label": "string",
						"numberOfBytes": "32"
					},
					"t_struct(Animal)8_storage": {
						"encoding": "inplace",
						"label": "struct Animals.Animal",
						"members": [
							{
								"astId": 3,
								"contract": "contracts/cow.sol:Cow",
								"label": "kind",
								"offset": 0,
								"slot": "0",
								"type": "t_string_storage"
							},
							{
								"astId": 5,
								"contract": "contracts/cow.sol:Cow",
								"label": "age",
								"offset": 0,
								"slot": "1",
								"type": "t_uint256"
							},
							{
								"astId": 7,
								"contract": "contracts/cow.sol:Cow",
								"label": "numberOfAnimal",
								"offset": 0,
								"slot": "2",
								"type": "t_uint256"
							}
						],
						"numberOfBytes": "96"
					},
					"t_uint256": {
						"encoding": "inplace",
						"label": "uint256",
						"numberOfBytes": "32"
					}
				}
			},
			"userdoc": {
				"kind": "user",
				"methods": {},
				"version": 1
			}
		}
	}
}